{
  "contractName": "CryptoRevolution",
  "abi": [
    {
      "inputs": [],
      "stateMutability": "nonpayable",
      "type": "constructor"
    },
    {
      "anonymous": false,
      "inputs": [
        {
          "indexed": true,
          "internalType": "address",
          "name": "account",
          "type": "address"
        },
        {
          "indexed": true,
          "internalType": "address",
          "name": "operator",
          "type": "address"
        },
        {
          "indexed": false,
          "internalType": "bool",
          "name": "approved",
          "type": "bool"
        }
      ],
      "name": "ApprovalForAll",
      "type": "event"
    },
    {
      "anonymous": false,
      "inputs": [
        {
          "indexed": true,
          "internalType": "address",
          "name": "previousOwner",
          "type": "address"
        },
        {
          "indexed": true,
          "internalType": "address",
          "name": "newOwner",
          "type": "address"
        }
      ],
      "name": "OwnershipTransferred",
      "type": "event"
    },
    {
      "anonymous": false,
      "inputs": [
        {
          "indexed": true,
          "internalType": "address",
          "name": "_from",
          "type": "address"
        },
        {
          "indexed": true,
          "internalType": "uint8",
          "name": "_id",
          "type": "uint8"
        },
        {
          "indexed": false,
          "internalType": "uint256",
          "name": "tokenID",
          "type": "uint256"
        }
      ],
      "name": "TokenMinted",
      "type": "event"
    },
    {
      "anonymous": false,
      "inputs": [
        {
          "indexed": true,
          "internalType": "address",
          "name": "operator",
          "type": "address"
        },
        {
          "indexed": true,
          "internalType": "address",
          "name": "from",
          "type": "address"
        },
        {
          "indexed": true,
          "internalType": "address",
          "name": "to",
          "type": "address"
        },
        {
          "indexed": false,
          "internalType": "uint256[]",
          "name": "ids",
          "type": "uint256[]"
        },
        {
          "indexed": false,
          "internalType": "uint256[]",
          "name": "values",
          "type": "uint256[]"
        }
      ],
      "name": "TransferBatch",
      "type": "event"
    },
    {
      "anonymous": false,
      "inputs": [
        {
          "indexed": true,
          "internalType": "address",
          "name": "operator",
          "type": "address"
        },
        {
          "indexed": true,
          "internalType": "address",
          "name": "from",
          "type": "address"
        },
        {
          "indexed": true,
          "internalType": "address",
          "name": "to",
          "type": "address"
        },
        {
          "indexed": false,
          "internalType": "uint256",
          "name": "id",
          "type": "uint256"
        },
        {
          "indexed": false,
          "internalType": "uint256",
          "name": "value",
          "type": "uint256"
        }
      ],
      "name": "TransferSingle",
      "type": "event"
    },
    {
      "anonymous": false,
      "inputs": [
        {
          "indexed": false,
          "internalType": "string",
          "name": "value",
          "type": "string"
        },
        {
          "indexed": true,
          "internalType": "uint256",
          "name": "id",
          "type": "uint256"
        }
      ],
      "name": "URI",
      "type": "event"
    },
    {
      "inputs": [
        {
          "internalType": "address",
          "name": "account",
          "type": "address"
        },
        {
          "internalType": "uint256",
          "name": "id",
          "type": "uint256"
        }
      ],
      "name": "balanceOf",
      "outputs": [
        {
          "internalType": "uint256",
          "name": "",
          "type": "uint256"
        }
      ],
      "stateMutability": "view",
      "type": "function",
      "constant": true
    },
    {
      "inputs": [
        {
          "internalType": "address[]",
          "name": "accounts",
          "type": "address[]"
        },
        {
          "internalType": "uint256[]",
          "name": "ids",
          "type": "uint256[]"
        }
      ],
      "name": "balanceOfBatch",
      "outputs": [
        {
          "internalType": "uint256[]",
          "name": "",
          "type": "uint256[]"
        }
      ],
      "stateMutability": "view",
      "type": "function",
      "constant": true
    },
    {
      "inputs": [
        {
          "internalType": "address",
          "name": "account",
          "type": "address"
        },
        {
          "internalType": "uint256",
          "name": "id",
          "type": "uint256"
        },
        {
          "internalType": "uint256",
          "name": "value",
          "type": "uint256"
        }
      ],
      "name": "burn",
      "outputs": [],
      "stateMutability": "nonpayable",
      "type": "function"
    },
    {
      "inputs": [
        {
          "internalType": "address",
          "name": "account",
          "type": "address"
        },
        {
          "internalType": "uint256[]",
          "name": "ids",
          "type": "uint256[]"
        },
        {
          "internalType": "uint256[]",
          "name": "values",
          "type": "uint256[]"
        }
      ],
      "name": "burnBatch",
      "outputs": [],
      "stateMutability": "nonpayable",
      "type": "function"
    },
    {
      "inputs": [
        {
          "internalType": "address",
          "name": "account",
          "type": "address"
        },
        {
          "internalType": "address",
          "name": "operator",
          "type": "address"
        }
      ],
      "name": "isApprovedForAll",
      "outputs": [
        {
          "internalType": "bool",
          "name": "",
          "type": "bool"
        }
      ],
      "stateMutability": "view",
      "type": "function",
      "constant": true
    },
    {
      "inputs": [],
      "name": "owner",
      "outputs": [
        {
          "internalType": "address",
          "name": "",
          "type": "address"
        }
      ],
      "stateMutability": "view",
      "type": "function",
      "constant": true
    },
    {
      "inputs": [],
      "name": "renounceOwnership",
      "outputs": [],
      "stateMutability": "nonpayable",
      "type": "function"
    },
    {
      "inputs": [
        {
          "internalType": "address",
          "name": "from",
          "type": "address"
        },
        {
          "internalType": "address",
          "name": "to",
          "type": "address"
        },
        {
          "internalType": "uint256[]",
          "name": "ids",
          "type": "uint256[]"
        },
        {
          "internalType": "uint256[]",
          "name": "amounts",
          "type": "uint256[]"
        },
        {
          "internalType": "bytes",
          "name": "data",
          "type": "bytes"
        }
      ],
      "name": "safeBatchTransferFrom",
      "outputs": [],
      "stateMutability": "nonpayable",
      "type": "function"
    },
    {
      "inputs": [
        {
          "internalType": "address",
          "name": "from",
          "type": "address"
        },
        {
          "internalType": "address",
          "name": "to",
          "type": "address"
        },
        {
          "internalType": "uint256",
          "name": "id",
          "type": "uint256"
        },
        {
          "internalType": "uint256",
          "name": "amount",
          "type": "uint256"
        },
        {
          "internalType": "bytes",
          "name": "data",
          "type": "bytes"
        }
      ],
      "name": "safeTransferFrom",
      "outputs": [],
      "stateMutability": "nonpayable",
      "type": "function"
    },
    {
      "inputs": [
        {
          "internalType": "address",
          "name": "operator",
          "type": "address"
        },
        {
          "internalType": "bool",
          "name": "approved",
          "type": "bool"
        }
      ],
      "name": "setApprovalForAll",
      "outputs": [],
      "stateMutability": "nonpayable",
      "type": "function"
    },
    {
      "inputs": [
        {
          "internalType": "bytes4",
          "name": "interfaceId",
          "type": "bytes4"
        }
      ],
      "name": "supportsInterface",
      "outputs": [
        {
          "internalType": "bool",
          "name": "",
          "type": "bool"
        }
      ],
      "stateMutability": "view",
      "type": "function",
      "constant": true
    },
    {
      "inputs": [
        {
          "internalType": "address",
          "name": "newOwner",
          "type": "address"
        }
      ],
      "name": "transferOwnership",
      "outputs": [],
      "stateMutability": "nonpayable",
      "type": "function"
    },
    {
      "inputs": [
        {
          "internalType": "uint256",
          "name": "",
          "type": "uint256"
        }
      ],
      "name": "uri",
      "outputs": [
        {
          "internalType": "string",
          "name": "",
          "type": "string"
        }
      ],
      "stateMutability": "view",
      "type": "function",
      "constant": true
    },
    {
      "inputs": [
        {
          "internalType": "address",
          "name": "recipient",
          "type": "address"
        },
        {
          "internalType": "uint8",
          "name": "nft_type",
          "type": "uint8"
        }
      ],
      "name": "mintNFT",
      "outputs": [
        {
          "internalType": "uint256",
          "name": "",
          "type": "uint256"
        }
      ],
      "stateMutability": "nonpayable",
      "type": "function"
    },
    {
      "inputs": [],
      "name": "getNFTOwners",
      "outputs": [
        {
          "internalType": "address[]",
          "name": "",
          "type": "address[]"
        }
      ],
      "stateMutability": "view",
      "type": "function",
      "constant": true
    },
    {
      "inputs": [
        {
          "internalType": "address",
          "name": "owner",
          "type": "address"
        }
      ],
      "name": "getOwnerNFTs",
      "outputs": [
        {
          "internalType": "uint16[]",
          "name": "",
          "type": "uint16[]"
        }
      ],
      "stateMutability": "view",
      "type": "function",
      "constant": true
    },
    {
      "inputs": [
        {
          "internalType": "address",
          "name": "recipient",
          "type": "address"
        },
        {
          "internalType": "uint8",
          "name": "nft_type",
          "type": "uint8"
        }
      ],
      "name": "convertNFT",
      "outputs": [
        {
          "internalType": "uint256",
          "name": "",
          "type": "uint256"
        }
      ],
      "stateMutability": "nonpayable",
      "type": "function"
    }
  ],
  "bytecode": "0x60806040523480156200001157600080fd5b506040518060800160405280605a8152602001620048ef605a91396200003d816200006460201b60201c565b506200005e620000526200008060201b60201c565b6200008860201b60201c565b62000263565b80600290805190602001906200007c9291906200014e565b5050565b600033905090565b6000600360009054906101000a900473ffffffffffffffffffffffffffffffffffffffff16905081600360006101000a81548173ffffffffffffffffffffffffffffffffffffffff021916908373ffffffffffffffffffffffffffffffffffffffff1602179055508173ffffffffffffffffffffffffffffffffffffffff168173ffffffffffffffffffffffffffffffffffffffff167f8be0079c531659141344cd1fd0a4f28419497f9722a3daafe3b4186f6b6457e060405160405180910390a35050565b8280546200015c906200022d565b90600052602060002090601f016020900481019282620001805760008555620001cc565b82601f106200019b57805160ff1916838001178555620001cc565b82800160010185558215620001cc579182015b82811115620001cb578251825591602001919060010190620001ae565b5b509050620001db9190620001df565b5090565b5b80821115620001fa576000816000905550600101620001e0565b5090565b7f4e487b7100000000000000000000000000000000000000000000000000000000600052602260045260246000fd5b600060028204905060018216806200024657607f821691505b602082108114156200025d576200025c620001fe565b5b50919050565b61467c80620002736000396000f3fe608060405234801561001057600080fd5b506004361061010a5760003560e01c8063715018a6116100a2578063a22cb46511610071578063a22cb465146102dd578063e985e9c5146102f9578063f242432a14610329578063f2fde38b14610345578063f5298aca146103615761010a565b8063715018a6146102675780638c017572146102715780638da5cb5b146102a15780638e393d83146102bf5761010a565b80632ca47c6d116100de5780632ca47c6d146101cf5780632eb2c2d6146101ff5780634e1273f41461021b5780636b20c4541461024b5761010a565b8062fdd58e1461010f57806301ffc9a71461013f5780630b52d38c1461016f5780630e89341c1461019f575b600080fd5b61012960048036038101906101249190612b64565b61037d565b6040516101369190612bb3565b60405180910390f35b61015960048036038101906101549190612c26565b610446565b6040516101669190612c6e565b60405180910390f35b61018960048036038101906101849190612cc2565b610528565b6040516101969190612bb3565b60405180910390f35b6101b960048036038101906101b49190612d02565b6109e0565b6040516101c69190612dc8565b60405180910390f35b6101e960048036038101906101e49190612cc2565b610a74565b6040516101f69190612bb3565b60405180910390f35b61021960048036038101906102149190612fe7565b610d9e565b005b61023560048036038101906102309190613179565b610e3f565b60405161024291906132af565b60405180910390f35b610265600480360381019061026091906132d1565b610f58565b005b61026f610ff5565b005b61028b6004803603810190610286919061335c565b61107d565b6040516102989190613455565b60405180910390f35b6102a961113c565b6040516102b69190613486565b60405180910390f35b6102c7611166565b6040516102d4919061355f565b60405180910390f35b6102f760048036038101906102f291906135ad565b6111f4565b005b610313600480360381019061030e91906135ed565b61120a565b6040516103209190612c6e565b60405180910390f35b610343600480360381019061033e919061362d565b61129e565b005b61035f600480360381019061035a919061335c565b61133f565b005b61037b600480360381019061037691906136c4565b611437565b005b60008073ffffffffffffffffffffffffffffffffffffffff168373ffffffffffffffffffffffffffffffffffffffff1614156103ee576040517f08c379a00000000000000000000000000000000000000000000000000000000081526004016103e590613789565b60405180910390fd5b60008083815260200190815260200160002060008473ffffffffffffffffffffffffffffffffffffffff1673ffffffffffffffffffffffffffffffffffffffff16815260200190815260200160002054905092915050565b60007fd9b67a26000000000000000000000000000000000000000000000000000000007bffffffffffffffffffffffffffffffffffffffffffffffffffffffff1916827bffffffffffffffffffffffffffffffffffffffffffffffffffffffff1916148061051157507f0e89341c000000000000000000000000000000000000000000000000000000007bffffffffffffffffffffffffffffffffffffffffffffffffffffffff1916827bffffffffffffffffffffffffffffffffffffffffffffffffffffffff1916145b806105215750610520826114d4565b5b9050919050565b6000816000600781111561053f5761053e6137a9565b5b8160ff16148061056457506002600781111561055e5761055d6137a9565b5b8160ff16145b8061058457506004600781111561057e5761057d6137a9565b5b8160ff16145b806105a457506006600781111561059e5761059d6137a9565b5b8160ff16145b6105e3576040517f08c379a00000000000000000000000000000000000000000000000000000000081526004016105da9061384a565b60405180910390fd5b8373ffffffffffffffffffffffffffffffffffffffff163373ffffffffffffffffffffffffffffffffffffffff16148061064f575061062061113c565b73ffffffffffffffffffffffffffffffffffffffff163373ffffffffffffffffffffffffffffffffffffffff16145b61068e576040517f08c379a0000000000000000000000000000000000000000000000000000000008152600401610685906138dc565b60405180910390fd5b600061069d858560ff1661037d565b14156106de576040517f08c379a00000000000000000000000000000000000000000000000000000000081526004016106d59061396e565b60405180910390fd5b6106ed848460ff16600161153e565b6106f7838561175b565b6000600781111561070b5761070a6137a9565b5b60018461071891906139bd565b60ff161015801561074a5750600780811115610737576107366137a9565b5b60018461074491906139bd565b60ff1611155b610789576040517f08c379a000000000000000000000000000000000000000000000000000000000815260040161078090613a40565b60405180910390fd5b6107b48460018561079a91906139bd565b60ff16600160405180602001604052806000815250611a3b565b60001515600460008673ffffffffffffffffffffffffffffffffffffffff1673ffffffffffffffffffffffffffffffffffffffff16815260200190815260200160002060009054906101000a900460ff16151514156108c9576001600460008673ffffffffffffffffffffffffffffffffffffffff1673ffffffffffffffffffffffffffffffffffffffff16815260200190815260200160002060006101000a81548160ff0219169083151502179055506005849080600181540180825580915050600190039060005260206000200160009091909190916101000a81548173ffffffffffffffffffffffffffffffffffffffff021916908373ffffffffffffffffffffffffffffffffffffffff1602179055505b600660008573ffffffffffffffffffffffffffffffffffffffff1673ffffffffffffffffffffffffffffffffffffffff16815260200190815260200160002060018461091591906139bd565b9080600181540180825580915050600190039060005260206000209060109182820401919006600202909160ff16909190916101000a81548161ffff021916908361ffff160217905550600061096b6007611bd1565b90506109776007611bdf565b60018461098491906139bd565b60ff168573ffffffffffffffffffffffffffffffffffffffff167fdb3d14144928557b18e0224265e8f3e1f4f4e7e63962cbd049eca292d6fd071c836040516109cd9190612bb3565b60405180910390a3809250505092915050565b6060600280546109ef90613a8f565b80601f0160208091040260200160405190810160405280929190818152602001828054610a1b90613a8f565b8015610a685780601f10610a3d57610100808354040283529160200191610a68565b820191906000526020600020905b815481529060010190602001808311610a4b57829003601f168201915b50505050509050919050565b6000610a7e611bf5565b73ffffffffffffffffffffffffffffffffffffffff16610a9c61113c565b73ffffffffffffffffffffffffffffffffffffffff1614610af2576040517f08c379a0000000000000000000000000000000000000000000000000000000008152600401610ae990613b0d565b60405180910390fd5b60006007811115610b0657610b056137a9565b5b8260ff1610158015610b2d5750600780811115610b2657610b256137a9565b5b8260ff1611155b610b6c576040517f08c379a0000000000000000000000000000000000000000000000000000000008152600401610b6390613a40565b60405180910390fd5b610b8b838360ff16600160405180602001604052806000815250611a3b565b60001515600460008573ffffffffffffffffffffffffffffffffffffffff1673ffffffffffffffffffffffffffffffffffffffff16815260200190815260200160002060009054906101000a900460ff1615151415610ca0576001600460008573ffffffffffffffffffffffffffffffffffffffff1673ffffffffffffffffffffffffffffffffffffffff16815260200190815260200160002060006101000a81548160ff0219169083151502179055506005839080600181540180825580915050600190039060005260206000200160009091909190916101000a81548173ffffffffffffffffffffffffffffffffffffffff021916908373ffffffffffffffffffffffffffffffffffffffff1602179055505b600660008473ffffffffffffffffffffffffffffffffffffffff1673ffffffffffffffffffffffffffffffffffffffff168152602001908152602001600020829080600181540180825580915050600190039060005260206000209060109182820401919006600202909160ff16909190916101000a81548161ffff021916908361ffff1602179055506000610d366007611bd1565b9050610d426007611bdf565b8260ff168473ffffffffffffffffffffffffffffffffffffffff167fdb3d14144928557b18e0224265e8f3e1f4f4e7e63962cbd049eca292d6fd071c83604051610d8c9190612bb3565b60405180910390a38091505092915050565b610da6611bf5565b73ffffffffffffffffffffffffffffffffffffffff168573ffffffffffffffffffffffffffffffffffffffff161480610dec5750610deb85610de6611bf5565b61120a565b5b610e2b576040517f08c379a0000000000000000000000000000000000000000000000000000000008152600401610e2290613b9f565b60405180910390fd5b610e388585858585611bfd565b5050505050565b60608151835114610e85576040517f08c379a0000000000000000000000000000000000000000000000000000000008152600401610e7c90613c31565b60405180910390fd5b6000835167ffffffffffffffff811115610ea257610ea1612def565b5b604051908082528060200260200182016040528015610ed05781602001602082028036833780820191505090505b50905060005b8451811015610f4d57610f1d858281518110610ef557610ef4613c51565b5b6020026020010151858381518110610f1057610f0f613c51565b5b602002602001015161037d565b828281518110610f3057610f2f613c51565b5b60200260200101818152505080610f4690613c80565b9050610ed6565b508091505092915050565b610f60611bf5565b73ffffffffffffffffffffffffffffffffffffffff168373ffffffffffffffffffffffffffffffffffffffff161480610fa65750610fa583610fa0611bf5565b61120a565b5b610fe5576040517f08c379a0000000000000000000000000000000000000000000000000000000008152600401610fdc90613d3b565b60405180910390fd5b610ff0838383611f11565b505050565b610ffd611bf5565b73ffffffffffffffffffffffffffffffffffffffff1661101b61113c565b73ffffffffffffffffffffffffffffffffffffffff1614611071576040517f08c379a000000000000000000000000000000000000000000000000000000000815260040161106890613b0d565b60405180910390fd5b61107b60006121c2565b565b6060600660008373ffffffffffffffffffffffffffffffffffffffff1673ffffffffffffffffffffffffffffffffffffffff16815260200190815260200160002080548060200260200160405190810160405280929190818152602001828054801561113057602002820191906000526020600020906000905b82829054906101000a900461ffff1661ffff16815260200190600201906020826001010492830192600103820291508084116110f75790505b50505050509050919050565b6000600360009054906101000a900473ffffffffffffffffffffffffffffffffffffffff16905090565b606060058054806020026020016040519081016040528092919081815260200182805480156111ea57602002820191906000526020600020905b8160009054906101000a900473ffffffffffffffffffffffffffffffffffffffff1673ffffffffffffffffffffffffffffffffffffffff16815260200190600101908083116111a0575b5050505050905090565b6112066111ff611bf5565b8383612288565b5050565b6000600160008473ffffffffffffffffffffffffffffffffffffffff1673ffffffffffffffffffffffffffffffffffffffff16815260200190815260200160002060008373ffffffffffffffffffffffffffffffffffffffff1673ffffffffffffffffffffffffffffffffffffffff16815260200190815260200160002060009054906101000a900460ff16905092915050565b6112a6611bf5565b73ffffffffffffffffffffffffffffffffffffffff168573ffffffffffffffffffffffffffffffffffffffff1614806112ec57506112eb856112e6611bf5565b61120a565b5b61132b576040517f08c379a000000000000000000000000000000000000000000000000000000000815260040161132290613d3b565b60405180910390fd5b61133885858585856123f5565b5050505050565b611347611bf5565b73ffffffffffffffffffffffffffffffffffffffff1661136561113c565b73ffffffffffffffffffffffffffffffffffffffff16146113bb576040517f08c379a00000000000000000000000000000000000000000000000000000000081526004016113b290613b0d565b60405180910390fd5b600073ffffffffffffffffffffffffffffffffffffffff168173ffffffffffffffffffffffffffffffffffffffff16141561142b576040517f08c379a000000000000000000000000000000000000000000000000000000000815260040161142290613dcd565b60405180910390fd5b611434816121c2565b50565b61143f611bf5565b73ffffffffffffffffffffffffffffffffffffffff168373ffffffffffffffffffffffffffffffffffffffff16148061148557506114848361147f611bf5565b61120a565b5b6114c4576040517f08c379a00000000000000000000000000000000000000000000000000000000081526004016114bb90613d3b565b60405180910390fd5b6114cf83838361153e565b505050565b60007f01ffc9a7000000000000000000000000000000000000000000000000000000007bffffffffffffffffffffffffffffffffffffffffffffffffffffffff1916827bffffffffffffffffffffffffffffffffffffffffffffffffffffffff1916149050919050565b600073ffffffffffffffffffffffffffffffffffffffff168373ffffffffffffffffffffffffffffffffffffffff1614156115ae576040517f08c379a00000000000000000000000000000000000000000000000000000000081526004016115a590613e5f565b60405180910390fd5b60006115b8611bf5565b90506115e8818560006115ca87612677565b6115d387612677565b604051806020016040528060008152506126f1565b600080600085815260200190815260200160002060008673ffffffffffffffffffffffffffffffffffffffff1673ffffffffffffffffffffffffffffffffffffffff1681526020019081526020016000205490508281101561167f576040517f08c379a000000000000000000000000000000000000000000000000000000000815260040161167690613ef1565b60405180910390fd5b82810360008086815260200190815260200160002060008773ffffffffffffffffffffffffffffffffffffffff1673ffffffffffffffffffffffffffffffffffffffff16815260200190815260200160002081905550600073ffffffffffffffffffffffffffffffffffffffff168573ffffffffffffffffffffffffffffffffffffffff168373ffffffffffffffffffffffffffffffffffffffff167fc3d58168c5ae7397731d063d5bbf3d657854427343f4c083240f7aacaa2d0f62878760405161174c929190613f11565b60405180910390a45050505050565b6000805b600660008473ffffffffffffffffffffffffffffffffffffffff1673ffffffffffffffffffffffffffffffffffffffff16815260200190815260200160002080549050811015611847578360ff16600660008573ffffffffffffffffffffffffffffffffffffffff1673ffffffffffffffffffffffffffffffffffffffff16815260200190815260200160002082815481106117fe576117fd613c51565b5b90600052602060002090601091828204019190066002029054906101000a900461ffff1661ffff16141561183457809150611847565b808061183f90613c80565b91505061175f565b5060008190505b6001600660008573ffffffffffffffffffffffffffffffffffffffff1673ffffffffffffffffffffffffffffffffffffffff1681526020019081526020016000208054905061189d9190613f3a565b8110156119b857600660008473ffffffffffffffffffffffffffffffffffffffff1673ffffffffffffffffffffffffffffffffffffffff1681526020019081526020016000206001826118f09190613f6e565b8154811061190157611900613c51565b5b90600052602060002090601091828204019190066002029054906101000a900461ffff16600660008573ffffffffffffffffffffffffffffffffffffffff1673ffffffffffffffffffffffffffffffffffffffff168152602001908152602001600020828154811061197657611975613c51565b5b90600052602060002090601091828204019190066002026101000a81548161ffff021916908361ffff16021790555080806119b090613c80565b91505061184e565b50600660008373ffffffffffffffffffffffffffffffffffffffff1673ffffffffffffffffffffffffffffffffffffffff168152602001908152602001600020805480611a0857611a07613fc4565b5b60019003818190600052602060002090601091828204019190066002026101000a81549061ffff02191690559055505050565b600073ffffffffffffffffffffffffffffffffffffffff168473ffffffffffffffffffffffffffffffffffffffff161415611aab576040517f08c379a0000000000000000000000000000000000000000000000000000000008152600401611aa290614065565b60405180910390fd5b6000611ab5611bf5565b9050611ad681600087611ac788612677565b611ad088612677565b876126f1565b8260008086815260200190815260200160002060008773ffffffffffffffffffffffffffffffffffffffff1673ffffffffffffffffffffffffffffffffffffffff1681526020019081526020016000206000828254611b359190613f6e565b925050819055508473ffffffffffffffffffffffffffffffffffffffff16600073ffffffffffffffffffffffffffffffffffffffff168273ffffffffffffffffffffffffffffffffffffffff167fc3d58168c5ae7397731d063d5bbf3d657854427343f4c083240f7aacaa2d0f628787604051611bb3929190613f11565b60405180910390a4611bca816000878787876126f9565b5050505050565b600081600001549050919050565b6001816000016000828254019250508190555050565b600033905090565b8151835114611c41576040517f08c379a0000000000000000000000000000000000000000000000000000000008152600401611c38906140f7565b60405180910390fd5b600073ffffffffffffffffffffffffffffffffffffffff168473ffffffffffffffffffffffffffffffffffffffff161415611cb1576040517f08c379a0000000000000000000000000000000000000000000000000000000008152600401611ca890614189565b60405180910390fd5b6000611cbb611bf5565b9050611ccb8187878787876126f1565b60005b8451811015611e7c576000858281518110611cec57611ceb613c51565b5b602002602001015190506000858381518110611d0b57611d0a613c51565b5b60200260200101519050600080600084815260200190815260200160002060008b73ffffffffffffffffffffffffffffffffffffffff1673ffffffffffffffffffffffffffffffffffffffff16815260200190815260200160002054905081811015611dac576040517f08c379a0000000000000000000000000000000000000000000000000000000008152600401611da39061421b565b60405180910390fd5b81810360008085815260200190815260200160002060008c73ffffffffffffffffffffffffffffffffffffffff1673ffffffffffffffffffffffffffffffffffffffff168152602001908152602001600020819055508160008085815260200190815260200160002060008b73ffffffffffffffffffffffffffffffffffffffff1673ffffffffffffffffffffffffffffffffffffffff1681526020019081526020016000206000828254611e619190613f6e565b9250508190555050505080611e7590613c80565b9050611cce565b508473ffffffffffffffffffffffffffffffffffffffff168673ffffffffffffffffffffffffffffffffffffffff168273ffffffffffffffffffffffffffffffffffffffff167f4a39dc06d4c0dbc64b70af90fd698a233a518aa5d07e595d983b8c0526c8f7fb8787604051611ef392919061423b565b60405180910390a4611f098187878787876128d1565b505050505050565b600073ffffffffffffffffffffffffffffffffffffffff168373ffffffffffffffffffffffffffffffffffffffff161415611f81576040517f08c379a0000000000000000000000000000000000000000000000000000000008152600401611f7890613e5f565b60405180910390fd5b8051825114611fc5576040517f08c379a0000000000000000000000000000000000000000000000000000000008152600401611fbc906140f7565b60405180910390fd5b6000611fcf611bf5565b9050611fef818560008686604051806020016040528060008152506126f1565b60005b835181101561213c5760008482815181106120105761200f613c51565b5b60200260200101519050600084838151811061202f5761202e613c51565b5b60200260200101519050600080600084815260200190815260200160002060008973ffffffffffffffffffffffffffffffffffffffff1673ffffffffffffffffffffffffffffffffffffffff168152602001908152602001600020549050818110156120d0576040517f08c379a00000000000000000000000000000000000000000000000000000000081526004016120c790613ef1565b60405180910390fd5b81810360008085815260200190815260200160002060008a73ffffffffffffffffffffffffffffffffffffffff1673ffffffffffffffffffffffffffffffffffffffff16815260200190815260200160002081905550505050808061213490613c80565b915050611ff2565b50600073ffffffffffffffffffffffffffffffffffffffff168473ffffffffffffffffffffffffffffffffffffffff168273ffffffffffffffffffffffffffffffffffffffff167f4a39dc06d4c0dbc64b70af90fd698a233a518aa5d07e595d983b8c0526c8f7fb86866040516121b492919061423b565b60405180910390a450505050565b6000600360009054906101000a900473ffffffffffffffffffffffffffffffffffffffff16905081600360006101000a81548173ffffffffffffffffffffffffffffffffffffffff021916908373ffffffffffffffffffffffffffffffffffffffff1602179055508173ffffffffffffffffffffffffffffffffffffffff168173ffffffffffffffffffffffffffffffffffffffff167f8be0079c531659141344cd1fd0a4f28419497f9722a3daafe3b4186f6b6457e060405160405180910390a35050565b8173ffffffffffffffffffffffffffffffffffffffff168373ffffffffffffffffffffffffffffffffffffffff1614156122f7576040517f08c379a00000000000000000000000000000000000000000000000000000000081526004016122ee906142e4565b60405180910390fd5b80600160008573ffffffffffffffffffffffffffffffffffffffff1673ffffffffffffffffffffffffffffffffffffffff16815260200190815260200160002060008473ffffffffffffffffffffffffffffffffffffffff1673ffffffffffffffffffffffffffffffffffffffff16815260200190815260200160002060006101000a81548160ff0219169083151502179055508173ffffffffffffffffffffffffffffffffffffffff168373ffffffffffffffffffffffffffffffffffffffff167f17307eab39ab6107e8899845ad3d59bd9653f200f220920489ca2b5937696c31836040516123e89190612c6e565b60405180910390a3505050565b600073ffffffffffffffffffffffffffffffffffffffff168473ffffffffffffffffffffffffffffffffffffffff161415612465576040517f08c379a000000000000000000000000000000000000000000000000000000000815260040161245c90614189565b60405180910390fd5b600061246f611bf5565b905061248f81878761248088612677565b61248988612677565b876126f1565b600080600086815260200190815260200160002060008873ffffffffffffffffffffffffffffffffffffffff1673ffffffffffffffffffffffffffffffffffffffff16815260200190815260200160002054905083811015612526576040517f08c379a000000000000000000000000000000000000000000000000000000000815260040161251d9061421b565b60405180910390fd5b83810360008087815260200190815260200160002060008973ffffffffffffffffffffffffffffffffffffffff1673ffffffffffffffffffffffffffffffffffffffff168152602001908152602001600020819055508360008087815260200190815260200160002060008873ffffffffffffffffffffffffffffffffffffffff1673ffffffffffffffffffffffffffffffffffffffff16815260200190815260200160002060008282546125db9190613f6e565b925050819055508573ffffffffffffffffffffffffffffffffffffffff168773ffffffffffffffffffffffffffffffffffffffff168373ffffffffffffffffffffffffffffffffffffffff167fc3d58168c5ae7397731d063d5bbf3d657854427343f4c083240f7aacaa2d0f628888604051612658929190613f11565b60405180910390a461266e8288888888886126f9565b50505050505050565b60606000600167ffffffffffffffff81111561269657612695612def565b5b6040519080825280602002602001820160405280156126c45781602001602082028036833780820191505090505b50905082816000815181106126dc576126db613c51565b5b60200260200101818152505080915050919050565b505050505050565b6127188473ffffffffffffffffffffffffffffffffffffffff16612aa9565b156128c9578373ffffffffffffffffffffffffffffffffffffffff1663f23a6e6187878686866040518663ffffffff1660e01b815260040161275e959493929190614359565b6020604051808303816000875af192505050801561279a57506040513d601f19601f8201168201806040525081019061279791906143c8565b60015b612840576127a6614402565b806308c379a0141561280357506127bb614424565b806127c65750612805565b806040517f08c379a00000000000000000000000000000000000000000000000000000000081526004016127fa9190612dc8565b60405180910390fd5b505b6040517f08c379a00000000000000000000000000000000000000000000000000000000081526004016128379061452c565b60405180910390fd5b63f23a6e6160e01b7bffffffffffffffffffffffffffffffffffffffffffffffffffffffff1916817bffffffffffffffffffffffffffffffffffffffffffffffffffffffff1916146128c7576040517f08c379a00000000000000000000000000000000000000000000000000000000081526004016128be906145be565b60405180910390fd5b505b505050505050565b6128f08473ffffffffffffffffffffffffffffffffffffffff16612aa9565b15612aa1578373ffffffffffffffffffffffffffffffffffffffff1663bc197c8187878686866040518663ffffffff1660e01b81526004016129369594939291906145de565b6020604051808303816000875af192505050801561297257506040513d601f19601f8201168201806040525081019061296f91906143c8565b60015b612a185761297e614402565b806308c379a014156129db5750612993614424565b8061299e57506129dd565b806040517f08c379a00000000000000000000000000000000000000000000000000000000081526004016129d29190612dc8565b60405180910390fd5b505b6040517f08c379a0000000000000000000000000000000000000000000000000000000008152600401612a0f9061452c565b60405180910390fd5b63bc197c8160e01b7bffffffffffffffffffffffffffffffffffffffffffffffffffffffff1916817bffffffffffffffffffffffffffffffffffffffffffffffffffffffff191614612a9f576040517f08c379a0000000000000000000000000000000000000000000000000000000008152600401612a96906145be565b60405180910390fd5b505b505050505050565b600080823b905060008111915050919050565b6000604051905090565b600080fd5b600080fd5b600073ffffffffffffffffffffffffffffffffffffffff82169050919050565b6000612afb82612ad0565b9050919050565b612b0b81612af0565b8114612b1657600080fd5b50565b600081359050612b2881612b02565b92915050565b6000819050919050565b612b4181612b2e565b8114612b4c57600080fd5b50565b600081359050612b5e81612b38565b92915050565b60008060408385031215612b7b57612b7a612ac6565b5b6000612b8985828601612b19565b9250506020612b9a85828601612b4f565b9150509250929050565b612bad81612b2e565b82525050565b6000602082019050612bc86000830184612ba4565b92915050565b60007fffffffff0000000000000000000000000000000000000000000000000000000082169050919050565b612c0381612bce565b8114612c0e57600080fd5b50565b600081359050612c2081612bfa565b92915050565b600060208284031215612c3c57612c3b612ac6565b5b6000612c4a84828501612c11565b91505092915050565b60008115159050919050565b612c6881612c53565b82525050565b6000602082019050612c836000830184612c5f565b92915050565b600060ff82169050919050565b612c9f81612c89565b8114612caa57600080fd5b50565b600081359050612cbc81612c96565b92915050565b60008060408385031215612cd957612cd8612ac6565b5b6000612ce785828601612b19565b9250506020612cf885828601612cad565b9150509250929050565b600060208284031215612d1857612d17612ac6565b5b6000612d2684828501612b4f565b91505092915050565b600081519050919050565b600082825260208201905092915050565b60005b83811015612d69578082015181840152602081019050612d4e565b83811115612d78576000848401525b50505050565b6000601f19601f8301169050919050565b6000612d9a82612d2f565b612da48185612d3a565b9350612db4818560208601612d4b565b612dbd81612d7e565b840191505092915050565b60006020820190508181036000830152612de28184612d8f565b905092915050565b600080fd5b7f4e487b7100000000000000000000000000000000000000000000000000000000600052604160045260246000fd5b612e2782612d7e565b810181811067ffffffffffffffff82111715612e4657612e45612def565b5b80604052505050565b6000612e59612abc565b9050612e658282612e1e565b919050565b600067ffffffffffffffff821115612e8557612e84612def565b5b602082029050602081019050919050565b600080fd5b6000612eae612ea984612e6a565b612e4f565b90508083825260208201905060208402830185811115612ed157612ed0612e96565b5b835b81811015612efa5780612ee68882612b4f565b845260208401935050602081019050612ed3565b5050509392505050565b600082601f830112612f1957612f18612dea565b5b8135612f29848260208601612e9b565b91505092915050565b600080fd5b600067ffffffffffffffff821115612f5257612f51612def565b5b612f5b82612d7e565b9050602081019050919050565b82818337600083830152505050565b6000612f8a612f8584612f37565b612e4f565b905082815260208101848484011115612fa657612fa5612f32565b5b612fb1848285612f68565b509392505050565b600082601f830112612fce57612fcd612dea565b5b8135612fde848260208601612f77565b91505092915050565b600080600080600060a0868803121561300357613002612ac6565b5b600061301188828901612b19565b955050602061302288828901612b19565b945050604086013567ffffffffffffffff81111561304357613042612acb565b5b61304f88828901612f04565b935050606086013567ffffffffffffffff8111156130705761306f612acb565b5b61307c88828901612f04565b925050608086013567ffffffffffffffff81111561309d5761309c612acb565b5b6130a988828901612fb9565b9150509295509295909350565b600067ffffffffffffffff8211156130d1576130d0612def565b5b602082029050602081019050919050565b60006130f56130f0846130b6565b612e4f565b9050808382526020820190506020840283018581111561311857613117612e96565b5b835b81811015613141578061312d8882612b19565b84526020840193505060208101905061311a565b5050509392505050565b600082601f8301126131605761315f612dea565b5b81356131708482602086016130e2565b91505092915050565b600080604083850312156131905761318f612ac6565b5b600083013567ffffffffffffffff8111156131ae576131ad612acb565b5b6131ba8582860161314b565b925050602083013567ffffffffffffffff8111156131db576131da612acb565b5b6131e785828601612f04565b9150509250929050565b600081519050919050565b600082825260208201905092915050565b6000819050602082019050919050565b61322681612b2e565b82525050565b6000613238838361321d565b60208301905092915050565b6000602082019050919050565b600061325c826131f1565b61326681856131fc565b93506132718361320d565b8060005b838110156132a2578151613289888261322c565b975061329483613244565b925050600181019050613275565b5085935050505092915050565b600060208201905081810360008301526132c98184613251565b905092915050565b6000806000606084860312156132ea576132e9612ac6565b5b60006132f886828701612b19565b935050602084013567ffffffffffffffff81111561331957613318612acb565b5b61332586828701612f04565b925050604084013567ffffffffffffffff81111561334657613345612acb565b5b61335286828701612f04565b9150509250925092565b60006020828403121561337257613371612ac6565b5b600061338084828501612b19565b91505092915050565b600081519050919050565b600082825260208201905092915050565b6000819050602082019050919050565b600061ffff82169050919050565b6133cc816133b5565b82525050565b60006133de83836133c3565b60208301905092915050565b6000602082019050919050565b600061340282613389565b61340c8185613394565b9350613417836133a5565b8060005b8381101561344857815161342f88826133d2565b975061343a836133ea565b92505060018101905061341b565b5085935050505092915050565b6000602082019050818103600083015261346f81846133f7565b905092915050565b61348081612af0565b82525050565b600060208201905061349b6000830184613477565b92915050565b600081519050919050565b600082825260208201905092915050565b6000819050602082019050919050565b6134d681612af0565b82525050565b60006134e883836134cd565b60208301905092915050565b6000602082019050919050565b600061350c826134a1565b61351681856134ac565b9350613521836134bd565b8060005b8381101561355257815161353988826134dc565b9750613544836134f4565b925050600181019050613525565b5085935050505092915050565b600060208201905081810360008301526135798184613501565b905092915050565b61358a81612c53565b811461359557600080fd5b50565b6000813590506135a781613581565b92915050565b600080604083850312156135c4576135c3612ac6565b5b60006135d285828601612b19565b92505060206135e385828601613598565b9150509250929050565b6000806040838503121561360457613603612ac6565b5b600061361285828601612b19565b925050602061362385828601612b19565b9150509250929050565b600080600080600060a0868803121561364957613648612ac6565b5b600061365788828901612b19565b955050602061366888828901612b19565b945050604061367988828901612b4f565b935050606061368a88828901612b4f565b925050608086013567ffffffffffffffff8111156136ab576136aa612acb565b5b6136b788828901612fb9565b9150509295509295909350565b6000806000606084860312156136dd576136dc612ac6565b5b60006136eb86828701612b19565b93505060206136fc86828701612b4f565b925050604061370d86828701612b4f565b9150509250925092565b7f455243313135353a2062616c616e636520717565727920666f7220746865207a60008201527f65726f2061646472657373000000000000000000000000000000000000000000602082015250565b6000613773602b83612d3a565b915061377e82613717565b604082019050919050565b600060208201905081810360008301526137a281613766565b9050919050565b7f4e487b7100000000000000000000000000000000000000000000000000000000600052602160045260246000fd5b7f547279696e6720746f20636f6e7665727420756e636f6e7665727461626c652060008201527f746f6b656e000000000000000000000000000000000000000000000000000000602082015250565b6000613834602583612d3a565b915061383f826137d8565b604082019050919050565b6000602082019050818103600083015261386381613827565b9050919050565b7f53656e646572206164647265737320646f6573206e6f7420686176652070657260008201527f6d697373696f6e7320746f20636f6e7665727400000000000000000000000000602082015250565b60006138c6603383612d3a565b91506138d18261386a565b604082019050919050565b600060208201905081810360008301526138f5816138b9565b9050919050565b7f526563697069656e7420646f6573206e6f74206f776e207468697320696e697460008201527f69616c20746f6b656e0000000000000000000000000000000000000000000000602082015250565b6000613958602983612d3a565b9150613963826138fc565b604082019050919050565b600060208201905081810360008301526139878161394b565b9050919050565b7f4e487b7100000000000000000000000000000000000000000000000000000000600052601160045260246000fd5b60006139c882612c89565b91506139d383612c89565b92508260ff038211156139e9576139e861398e565b5b828201905092915050565b7f4d696e7420746f6b656e206c6576656c20697320696e636f7272656374000000600082015250565b6000613a2a601d83612d3a565b9150613a35826139f4565b602082019050919050565b60006020820190508181036000830152613a5981613a1d565b9050919050565b7f4e487b7100000000000000000000000000000000000000000000000000000000600052602260045260246000fd5b60006002820490506001821680613aa757607f821691505b60208210811415613abb57613aba613a60565b5b50919050565b7f4f776e61626c653a2063616c6c6572206973206e6f7420746865206f776e6572600082015250565b6000613af7602083612d3a565b9150613b0282613ac1565b602082019050919050565b60006020820190508181036000830152613b2681613aea565b9050919050565b7f455243313135353a207472616e736665722063616c6c6572206973206e6f742060008201527f6f776e6572206e6f7220617070726f7665640000000000000000000000000000602082015250565b6000613b89603283612d3a565b9150613b9482613b2d565b604082019050919050565b60006020820190508181036000830152613bb881613b7c565b9050919050565b7f455243313135353a206163636f756e747320616e6420696473206c656e67746860008201527f206d69736d617463680000000000000000000000000000000000000000000000602082015250565b6000613c1b602983612d3a565b9150613c2682613bbf565b604082019050919050565b60006020820190508181036000830152613c4a81613c0e565b9050919050565b7f4e487b7100000000000000000000000000000000000000000000000000000000600052603260045260246000fd5b6000613c8b82612b2e565b91507fffffffffffffffffffffffffffffffffffffffffffffffffffffffffffffffff821415613cbe57613cbd61398e565b5b600182019050919050565b7f455243313135353a2063616c6c6572206973206e6f74206f776e6572206e6f7260008201527f20617070726f7665640000000000000000000000000000000000000000000000602082015250565b6000613d25602983612d3a565b9150613d3082613cc9565b604082019050919050565b60006020820190508181036000830152613d5481613d18565b9050919050565b7f4f776e61626c653a206e6577206f776e657220697320746865207a65726f206160008201527f6464726573730000000000000000000000000000000000000000000000000000602082015250565b6000613db7602683612d3a565b9150613dc282613d5b565b604082019050919050565b60006020820190508181036000830152613de681613daa565b9050919050565b7f455243313135353a206275726e2066726f6d20746865207a65726f206164647260008201527f6573730000000000000000000000000000000000000000000000000000000000602082015250565b6000613e49602383612d3a565b9150613e5482613ded565b604082019050919050565b60006020820190508181036000830152613e7881613e3c565b9050919050565b7f455243313135353a206275726e20616d6f756e7420657863656564732062616c60008201527f616e636500000000000000000000000000000000000000000000000000000000602082015250565b6000613edb602483612d3a565b9150613ee682613e7f565b604082019050919050565b60006020820190508181036000830152613f0a81613ece565b9050919050565b6000604082019050613f266000830185612ba4565b613f336020830184612ba4565b9392505050565b6000613f4582612b2e565b9150613f5083612b2e565b925082821015613f6357613f6261398e565b5b828203905092915050565b6000613f7982612b2e565b9150613f8483612b2e565b9250827fffffffffffffffffffffffffffffffffffffffffffffffffffffffffffffffff03821115613fb957613fb861398e565b5b828201905092915050565b7f4e487b7100000000000000000000000000000000000000000000000000000000600052603160045260246000fd5b7f455243313135353a206d696e7420746f20746865207a65726f2061646472657360008201527f7300000000000000000000000000000000000000000000000000000000000000602082015250565b600061404f602183612d3a565b915061405a82613ff3565b604082019050919050565b6000602082019050818103600083015261407e81614042565b9050919050565b7f455243313135353a2069647320616e6420616d6f756e7473206c656e6774682060008201527f6d69736d61746368000000000000000000000000000000000000000000000000602082015250565b60006140e1602883612d3a565b91506140ec82614085565b604082019050919050565b60006020820190508181036000830152614110816140d4565b9050919050565b7f455243313135353a207472616e7366657220746f20746865207a65726f20616460008201527f6472657373000000000000000000000000000000000000000000000000000000602082015250565b6000614173602583612d3a565b915061417e82614117565b604082019050919050565b600060208201905081810360008301526141a281614166565b9050919050565b7f455243313135353a20696e73756666696369656e742062616c616e636520666f60008201527f72207472616e7366657200000000000000000000000000000000000000000000602082015250565b6000614205602a83612d3a565b9150614210826141a9565b604082019050919050565b60006020820190508181036000830152614234816141f8565b9050919050565b600060408201905081810360008301526142558185613251565b905081810360208301526142698184613251565b90509392505050565b7f455243313135353a2073657474696e6720617070726f76616c2073746174757360008201527f20666f722073656c660000000000000000000000000000000000000000000000602082015250565b60006142ce602983612d3a565b91506142d982614272565b604082019050919050565b600060208201905081810360008301526142fd816142c1565b9050919050565b600081519050919050565b600082825260208201905092915050565b600061432b82614304565b614335818561430f565b9350614345818560208601612d4b565b61434e81612d7e565b840191505092915050565b600060a08201905061436e6000830188613477565b61437b6020830187613477565b6143886040830186612ba4565b6143956060830185612ba4565b81810360808301526143a78184614320565b90509695505050505050565b6000815190506143c281612bfa565b92915050565b6000602082840312156143de576143dd612ac6565b5b60006143ec848285016143b3565b91505092915050565b60008160e01c9050919050565b600060033d11156144215760046000803e61441e6000516143f5565b90505b90565b600060443d1015614434576144b7565b61443c612abc565b60043d036004823e80513d602482011167ffffffffffffffff821117156144645750506144b7565b808201805167ffffffffffffffff81111561448257505050506144b7565b80602083010160043d03850181111561449f5750505050506144b7565b6144ae82602001850186612e1e565b82955050505050505b90565b7f455243313135353a207472616e7366657220746f206e6f6e204552433131353560008201527f526563656976657220696d706c656d656e746572000000000000000000000000602082015250565b6000614516603483612d3a565b9150614521826144ba565b604082019050919050565b6000602082019050818103600083015261454581614509565b9050919050565b7f455243313135353a204552433131353552656365697665722072656a6563746560008201527f6420746f6b656e73000000000000000000000000000000000000000000000000602082015250565b60006145a8602883612d3a565b91506145b38261454c565b604082019050919050565b600060208201905081810360008301526145d78161459b565b9050919050565b600060a0820190506145f36000830188613477565b6146006020830187613477565b81810360408301526146128186613251565b905081810360608301526146268185613251565b9050818103608083015261463a8184614320565b9050969550505050505056fea264697066735822122017d2658897ad15c4a66f9994371a0780956f08f7302bcf6cceaaeb2ae02ccbe864736f6c634300080b003368747470733a2f2f676174657761792e70696e6174612e636c6f75642f697066732f516d5454736f3145345356654a7250556b4d5a715154714d62337663484d424251745132674169754a46783247632f7b69647d2e6a736f6e",
  "immutableReferences": {},
  "source": "// SPDX-License-Identifier: MIT\nimport \"@openzeppelin/contracts/token/ERC1155/ERC1155.sol\";\nimport \"@openzeppelin/contracts/token/ERC1155/extensions/IERC1155MetadataURI.sol\";\nimport \"@openzeppelin/contracts/token/ERC1155/extensions/ERC1155Burnable.sol\";\nimport \"@openzeppelin/contracts/utils/Counters.sol\";\nimport \"@openzeppelin/contracts/access/Ownable.sol\";\n\npragma solidity ^0.8.0;\n\n\ncontract CryptoRevolution is ERC1155Burnable, Ownable\n{\n    event TokenMinted(address indexed _from, uint8 indexed _id, uint256 tokenID);\n\n    enum NFT_Types\n    {\n        VISITOR,\n        VISITOR_VISITED,\n        VIP,\n        VIP_VISITED,\n        SPONSOR,\n        SPONSOR_VISITED,\n        LECTURER,\n        LECTURER_VISITED\n    }\n\n    mapping (address => bool) private knownAddresses;\n\n    address[] private tokenOwners;\n    mapping (address => uint16[]) private ownerToTokens;\n\n    using Counters for Counters.Counter;\n    Counters.Counter private _tokenIds;\n\n    constructor() ERC1155(\"https://gateway.pinata.cloud/ipfs/QmTTso1E4SVeJrPUkMZqQTqMb3vcHMBBQtQ2gAiuJFx2Gc/{id}.json\")\n    {\n    }\n\n    function mintNFT(address recipient, uint8 nft_type)\n        public onlyOwner()\n        returns (uint256)\n    {\n        require((nft_type >= uint(NFT_Types.VISITOR) &&\n                    nft_type <= uint(NFT_Types.LECTURER_VISITED)), \"Mint token level is incorrect\");\n\n        _mint(recipient, nft_type, 1, \"\");\n        if (knownAddresses[recipient] == false)\n        {\n            knownAddresses[recipient] = true;\n            tokenOwners.push(recipient);\n        }\n\n        ownerToTokens[recipient].push(nft_type);\n        uint256 tokenId = _tokenIds.current();\n        _tokenIds.increment();\n\n        emit TokenMinted(recipient, nft_type, tokenId);\n        return tokenId;\n    }\n\n    function getNFTOwners()\n        public view  returns (address[] memory)\n    {\n        return tokenOwners;\n    }\n\n    function getOwnerNFTs(address owner)\n        public view  returns (uint16[] memory)\n    {\n        return ownerToTokens[owner];\n    }\n\n    modifier only_not_visited_token(uint8 tokenID) {\n        require( (tokenID == uint(NFT_Types.VISITOR) ||\n                    tokenID == uint(NFT_Types.VIP) ||\n                    tokenID == uint(NFT_Types.SPONSOR) ||\n                    tokenID == uint(NFT_Types.LECTURER)),\n                    \"Trying to convert unconvertable token\");\n        _;\n    }\n\n    function removeToken(uint8 nft_type, address recipient) private {\n        uint index = 0;\n        for (uint i = 0; i < ownerToTokens[recipient].length; i++)\n        {\n            if (ownerToTokens[recipient][i] == nft_type)\n            {\n                index = i;\n                break;\n            }\n        }\n\n        for(uint i = index; i < ownerToTokens[recipient].length-1; i++)\n        {\n            ownerToTokens[recipient][i] = ownerToTokens[recipient][i+1];\n        }\n        ownerToTokens[recipient].pop();\n    }\n\n    function convertNFT(address recipient, uint8 nft_type)\n        public only_not_visited_token(nft_type)\n        returns (uint256)\n    {\n        require(msg.sender == recipient || msg.sender == owner(),\n                \"Sender address does not have permissions to convert\");\n        require(balanceOf(recipient, nft_type) != 0, \"Recipient does not own this initial token\");\n        _burn(recipient, nft_type, 1);\n        removeToken(nft_type, recipient);\n\n        require((nft_type+1 >= uint(NFT_Types.VISITOR) &&\n                nft_type+1 <= uint(NFT_Types.LECTURER_VISITED)), \"Mint token level is incorrect\");\n\n        _mint(recipient, nft_type+1, 1, \"\");\n        if (knownAddresses[recipient] == false)\n        {\n            knownAddresses[recipient] = true;\n            tokenOwners.push(recipient);\n        }\n\n        ownerToTokens[recipient].push(nft_type+1);\n        uint256 tokenId = _tokenIds.current();\n        _tokenIds.increment();\n\n        emit TokenMinted(recipient, nft_type+1, tokenId);\n        return tokenId;\n    }\n}",
  "sourcePath": "/home/default/tests/CryptoRevolution/contracts/CryptoRevolutionNFT.sol",
  "compiler": {
    "name": "solc",
    "version": "0.8.11+commit.d7f03943.Emscripten.clang"
  },
  "schemaVersion": "3.4.3",
  "updatedAt": "2022-02-14T11:55:14.120Z",
  "networkType": "ethereum",
  "devdoc": {
    "kind": "dev",
    "methods": {
      "balanceOf(address,uint256)": {
        "details": "See {IERC1155-balanceOf}. Requirements: - `account` cannot be the zero address."
      },
      "balanceOfBatch(address[],uint256[])": {
        "details": "See {IERC1155-balanceOfBatch}. Requirements: - `accounts` and `ids` must have the same length."
      },
      "isApprovedForAll(address,address)": {
        "details": "See {IERC1155-isApprovedForAll}."
      },
      "owner()": {
        "details": "Returns the address of the current owner."
      },
      "renounceOwnership()": {
        "details": "Leaves the contract without owner. It will not be possible to call `onlyOwner` functions anymore. Can only be called by the current owner. NOTE: Renouncing ownership will leave the contract without an owner, thereby removing any functionality that is only available to the owner."
      },
      "safeBatchTransferFrom(address,address,uint256[],uint256[],bytes)": {
        "details": "See {IERC1155-safeBatchTransferFrom}."
      },
      "safeTransferFrom(address,address,uint256,uint256,bytes)": {
        "details": "See {IERC1155-safeTransferFrom}."
      },
      "setApprovalForAll(address,bool)": {
        "details": "See {IERC1155-setApprovalForAll}."
      },
      "supportsInterface(bytes4)": {
        "details": "See {IERC165-supportsInterface}."
      },
      "transferOwnership(address)": {
        "details": "Transfers ownership of the contract to a new account (`newOwner`). Can only be called by the current owner."
      },
      "uri(uint256)": {
        "details": "See {IERC1155MetadataURI-uri}. This implementation returns the same URI for *all* token types. It relies on the token type ID substitution mechanism https://eips.ethereum.org/EIPS/eip-1155#metadata[defined in the EIP]. Clients calling this function must replace the `\\{id\\}` substring with the actual token type ID."
      }
    },
    "version": 1
  },
  "userdoc": {
    "kind": "user",
    "methods": {},
    "version": 1
  }
}