{
  "_format": "hh-sol-artifact-1",
  "contractName": "CryptoRevolution",
  "sourceName": "contracts/CryptoRevolution.sol",
  "abi": [
    {
      "inputs": [],
      "stateMutability": "nonpayable",
      "type": "constructor"
    },
    {
      "anonymous": false,
      "inputs": [
        {
          "indexed": true,
          "internalType": "address",
          "name": "account",
          "type": "address"
        },
        {
          "indexed": true,
          "internalType": "address",
          "name": "operator",
          "type": "address"
        },
        {
          "indexed": false,
          "internalType": "bool",
          "name": "approved",
          "type": "bool"
        }
      ],
      "name": "ApprovalForAll",
      "type": "event"
    },
    {
      "anonymous": false,
      "inputs": [
        {
          "indexed": true,
          "internalType": "address",
          "name": "previousOwner",
          "type": "address"
        },
        {
          "indexed": true,
          "internalType": "address",
          "name": "newOwner",
          "type": "address"
        }
      ],
      "name": "OwnershipTransferred",
      "type": "event"
    },
    {
      "anonymous": false,
      "inputs": [
        {
          "indexed": true,
          "internalType": "address",
          "name": "operator",
          "type": "address"
        },
        {
          "indexed": true,
          "internalType": "address",
          "name": "from",
          "type": "address"
        },
        {
          "indexed": true,
          "internalType": "address",
          "name": "to",
          "type": "address"
        },
        {
          "indexed": false,
          "internalType": "uint256[]",
          "name": "ids",
          "type": "uint256[]"
        },
        {
          "indexed": false,
          "internalType": "uint256[]",
          "name": "values",
          "type": "uint256[]"
        }
      ],
      "name": "TransferBatch",
      "type": "event"
    },
    {
      "anonymous": false,
      "inputs": [
        {
          "indexed": true,
          "internalType": "address",
          "name": "operator",
          "type": "address"
        },
        {
          "indexed": true,
          "internalType": "address",
          "name": "from",
          "type": "address"
        },
        {
          "indexed": true,
          "internalType": "address",
          "name": "to",
          "type": "address"
        },
        {
          "indexed": false,
          "internalType": "uint256",
          "name": "id",
          "type": "uint256"
        },
        {
          "indexed": false,
          "internalType": "uint256",
          "name": "value",
          "type": "uint256"
        }
      ],
      "name": "TransferSingle",
      "type": "event"
    },
    {
      "anonymous": false,
      "inputs": [
        {
          "indexed": false,
          "internalType": "string",
          "name": "value",
          "type": "string"
        },
        {
          "indexed": true,
          "internalType": "uint256",
          "name": "id",
          "type": "uint256"
        }
      ],
      "name": "URI",
      "type": "event"
    },
    {
      "inputs": [
        {
          "internalType": "address",
          "name": "account",
          "type": "address"
        },
        {
          "internalType": "uint256",
          "name": "id",
          "type": "uint256"
        }
      ],
      "name": "balanceOf",
      "outputs": [
        {
          "internalType": "uint256",
          "name": "",
          "type": "uint256"
        }
      ],
      "stateMutability": "view",
      "type": "function"
    },
    {
      "inputs": [
        {
          "internalType": "address[]",
          "name": "accounts",
          "type": "address[]"
        },
        {
          "internalType": "uint256[]",
          "name": "ids",
          "type": "uint256[]"
        }
      ],
      "name": "balanceOfBatch",
      "outputs": [
        {
          "internalType": "uint256[]",
          "name": "",
          "type": "uint256[]"
        }
      ],
      "stateMutability": "view",
      "type": "function"
    },
    {
      "inputs": [
        {
          "internalType": "uint256",
          "name": "id",
          "type": "uint256"
        }
      ],
      "name": "exists",
      "outputs": [
        {
          "internalType": "bool",
          "name": "",
          "type": "bool"
        }
      ],
      "stateMutability": "view",
      "type": "function"
    },
    {
      "inputs": [
        {
          "internalType": "address",
          "name": "account",
          "type": "address"
        },
        {
          "internalType": "address",
          "name": "operator",
          "type": "address"
        }
      ],
      "name": "isApprovedForAll",
      "outputs": [
        {
          "internalType": "bool",
          "name": "",
          "type": "bool"
        }
      ],
      "stateMutability": "view",
      "type": "function"
    },
    {
      "inputs": [
        {
          "internalType": "address",
          "name": "account",
          "type": "address"
        },
        {
          "internalType": "uint256",
          "name": "id",
          "type": "uint256"
        }
      ],
      "name": "mint",
      "outputs": [],
      "stateMutability": "nonpayable",
      "type": "function"
    },
    {
      "inputs": [
        {
          "internalType": "address",
          "name": "to",
          "type": "address"
        },
        {
          "internalType": "uint256[]",
          "name": "ids",
          "type": "uint256[]"
        },
        {
          "internalType": "uint256[]",
          "name": "amounts",
          "type": "uint256[]"
        },
        {
          "internalType": "bytes",
          "name": "data",
          "type": "bytes"
        }
      ],
      "name": "mintBatch",
      "outputs": [],
      "stateMutability": "nonpayable",
      "type": "function"
    },
    {
      "inputs": [],
      "name": "owner",
      "outputs": [
        {
          "internalType": "address",
          "name": "",
          "type": "address"
        }
      ],
      "stateMutability": "view",
      "type": "function"
    },
    {
      "inputs": [],
      "name": "renounceOwnership",
      "outputs": [],
      "stateMutability": "nonpayable",
      "type": "function"
    },
    {
      "inputs": [
        {
          "internalType": "address",
          "name": "from",
          "type": "address"
        },
        {
          "internalType": "address",
          "name": "to",
          "type": "address"
        },
        {
          "internalType": "uint256[]",
          "name": "ids",
          "type": "uint256[]"
        },
        {
          "internalType": "uint256[]",
          "name": "amounts",
          "type": "uint256[]"
        },
        {
          "internalType": "bytes",
          "name": "data",
          "type": "bytes"
        }
      ],
      "name": "safeBatchTransferFrom",
      "outputs": [],
      "stateMutability": "nonpayable",
      "type": "function"
    },
    {
      "inputs": [
        {
          "internalType": "address",
          "name": "from",
          "type": "address"
        },
        {
          "internalType": "address",
          "name": "to",
          "type": "address"
        },
        {
          "internalType": "uint256",
          "name": "id",
          "type": "uint256"
        },
        {
          "internalType": "uint256",
          "name": "amount",
          "type": "uint256"
        },
        {
          "internalType": "bytes",
          "name": "data",
          "type": "bytes"
        }
      ],
      "name": "safeTransferFrom",
      "outputs": [],
      "stateMutability": "nonpayable",
      "type": "function"
    },
    {
      "inputs": [
        {
          "internalType": "address",
          "name": "operator",
          "type": "address"
        },
        {
          "internalType": "bool",
          "name": "approved",
          "type": "bool"
        }
      ],
      "name": "setApprovalForAll",
      "outputs": [],
      "stateMutability": "nonpayable",
      "type": "function"
    },
    {
      "inputs": [
        {
          "internalType": "bytes4",
          "name": "interfaceId",
          "type": "bytes4"
        }
      ],
      "name": "supportsInterface",
      "outputs": [
        {
          "internalType": "bool",
          "name": "",
          "type": "bool"
        }
      ],
      "stateMutability": "view",
      "type": "function"
    },
    {
      "inputs": [
        {
          "internalType": "uint256",
          "name": "id",
          "type": "uint256"
        }
      ],
      "name": "totalSupply",
      "outputs": [
        {
          "internalType": "uint256",
          "name": "",
          "type": "uint256"
        }
      ],
      "stateMutability": "view",
      "type": "function"
    },
    {
      "inputs": [
        {
          "internalType": "address",
          "name": "newOwner",
          "type": "address"
        }
      ],
      "name": "transferOwnership",
      "outputs": [],
      "stateMutability": "nonpayable",
      "type": "function"
    },
    {
      "inputs": [
        {
          "internalType": "uint256",
          "name": "",
          "type": "uint256"
        }
      ],
      "name": "uri",
      "outputs": [
        {
          "internalType": "string",
          "name": "",
          "type": "string"
        }
      ],
      "stateMutability": "view",
      "type": "function"
    }
  ],
  "bytecode": "0x60806040523480156200001157600080fd5b506040518060800160405280605a815260200162001cfc605a9139620000378162000049565b50620000433362000062565b62000197565b80516200005e906002906020840190620000b4565b5050565b600380546001600160a01b038381166001600160a01b0319831681179093556040519116919082907f8be0079c531659141344cd1fd0a4f28419497f9722a3daafe3b4186f6b6457e090600090a35050565b828054620000c2906200015a565b90600052602060002090601f016020900481019282620000e6576000855562000131565b82601f106200010157805160ff191683800117855562000131565b8280016001018555821562000131579182015b828111156200013157825182559160200191906001019062000114565b506200013f92915062000143565b5090565b5b808211156200013f576000815560010162000144565b600181811c908216806200016f57607f821691505b602082108114156200019157634e487b7160e01b600052602260045260246000fd5b50919050565b611b5580620001a76000396000f3fe608060405234801561001057600080fd5b50600436106100f45760003560e01c80634f558e7911610097578063bd85b03911610066578063bd85b03914610215578063e985e9c514610235578063f242432a14610271578063f2fde38b1461028457600080fd5b80634f558e79146101bd578063715018a6146101df5780638da5cb5b146101e7578063a22cb4651461020257600080fd5b80631f7fdffa116100d35780631f7fdffa146101625780632eb2c2d61461017757806340c10f191461018a5780634e1273f41461019d57600080fd5b8062fdd58e146100f957806301ffc9a71461011f5780630e89341c14610142575b600080fd5b61010c6101073660046111ce565b610297565b6040519081526020015b60405180910390f35b61013261012d36600461120e565b61032d565b6040519015158152602001610116565b610155610150366004611232565b61037f565b6040516101169190611298565b6101756101703660046113f7565b610413565b005b610175610185366004611490565b61042d565b6101756101983660046111ce565b610479565b6101b06101ab36600461153a565b6104f2565b6040516101169190611640565b6101326101cb366004611232565b600090815260046020526040902054151590565b61017561061c565b6003546040516001600160a01b039091168152602001610116565b610175610210366004611653565b610630565b61010c610223366004611232565b60009081526004602052604090205490565b61013261024336600461168f565b6001600160a01b03918216600090815260016020908152604080832093909416825291909152205460ff1690565b61017561027f3660046116c2565b61063b565b610175610292366004611727565b610680565b60006001600160a01b0383166103075760405162461bcd60e51b815260206004820152602a60248201527f455243313135353a2061646472657373207a65726f206973206e6f742061207660448201526930b634b21037bbb732b960b11b60648201526084015b60405180910390fd5b506000908152602081815260408083206001600160a01b03949094168352929052205490565b60006001600160e01b03198216636cdb3d1360e11b148061035e57506001600160e01b031982166303a24d0760e21b145b8061037957506301ffc9a760e01b6001600160e01b03198316145b92915050565b60606002805461038e90611742565b80601f01602080910402602001604051908101604052809291908181526020018280546103ba90611742565b80156104075780601f106103dc57610100808354040283529160200191610407565b820191906000526020600020905b8154815290600101906020018083116103ea57829003601f168201915b50505050509050919050565b61041b6106f9565b61042784848484610753565b50505050565b6001600160a01b03851633148061044957506104498533610243565b6104655760405162461bcd60e51b81526004016102fe9061177d565b61047285858585856108ad565b5050505050565b6104816106f9565b60018111156104d25760405162461bcd60e51b815260206004820152601d60248201527f4d696e7420746f6b656e206c6576656c20697320696e636f727265637400000060448201526064016102fe565b6104ee8282600160405180602001604052806000815250610a57565b5050565b606081518351146105575760405162461bcd60e51b815260206004820152602960248201527f455243313135353a206163636f756e747320616e6420696473206c656e677468604482015268040dad2e6dac2e8c6d60bb1b60648201526084016102fe565b6000835167ffffffffffffffff811115610573576105736112ab565b60405190808252806020026020018201604052801561059c578160200160208202803683370190505b50905060005b8451811015610614576105e78582815181106105c0576105c06117cc565b60200260200101518583815181106105da576105da6117cc565b6020026020010151610297565b8282815181106105f9576105f96117cc565b602090810291909101015261060d816117f8565b90506105a2565b509392505050565b6106246106f9565b61062e6000610b40565b565b6104ee338383610b92565b6001600160a01b03851633148061065757506106578533610243565b6106735760405162461bcd60e51b81526004016102fe9061177d565b6104728585858585610c73565b6106886106f9565b6001600160a01b0381166106ed5760405162461bcd60e51b815260206004820152602660248201527f4f776e61626c653a206e6577206f776e657220697320746865207a65726f206160448201526564647265737360d01b60648201526084016102fe565b6106f681610b40565b50565b6003546001600160a01b0316331461062e5760405162461bcd60e51b815260206004820181905260248201527f4f776e61626c653a2063616c6c6572206973206e6f7420746865206f776e657260448201526064016102fe565b6001600160a01b0384166107795760405162461bcd60e51b81526004016102fe90611813565b815183511461079a5760405162461bcd60e51b81526004016102fe90611854565b336107aa81600087878787610dab565b60005b8451811015610845578381815181106107c8576107c86117cc565b60200260200101516000808784815181106107e5576107e56117cc565b602002602001015181526020019081526020016000206000886001600160a01b03166001600160a01b03168152602001908152602001600020600082825461082d919061189c565b9091555081905061083d816117f8565b9150506107ad565b50846001600160a01b031660006001600160a01b0316826001600160a01b03167f4a39dc06d4c0dbc64b70af90fd698a233a518aa5d07e595d983b8c0526c8f7fb87876040516108969291906118b4565b60405180910390a461047281600087878787610db9565b81518351146108ce5760405162461bcd60e51b81526004016102fe90611854565b6001600160a01b0384166108f45760405162461bcd60e51b81526004016102fe906118e2565b33610903818787878787610dab565b60005b84518110156109e9576000858281518110610923576109236117cc565b602002602001015190506000858381518110610941576109416117cc565b602090810291909101810151600084815280835260408082206001600160a01b038e1683529093529190912054909150818110156109915760405162461bcd60e51b81526004016102fe90611927565b6000838152602081815260408083206001600160a01b038e8116855292528083208585039055908b168252812080548492906109ce90849061189c565b92505081905550505050806109e2906117f8565b9050610906565b50846001600160a01b0316866001600160a01b0316826001600160a01b03167f4a39dc06d4c0dbc64b70af90fd698a233a518aa5d07e595d983b8c0526c8f7fb8787604051610a399291906118b4565b60405180910390a4610a4f818787878787610db9565b505050505050565b6001600160a01b038416610a7d5760405162461bcd60e51b81526004016102fe90611813565b336000610a8985610f24565b90506000610a9685610f24565b9050610aa783600089858589610dab565b6000868152602081815260408083206001600160a01b038b16845290915281208054879290610ad790849061189c565b909155505060408051878152602081018790526001600160a01b03808a1692600092918716917fc3d58168c5ae7397731d063d5bbf3d657854427343f4c083240f7aacaa2d0f62910160405180910390a4610b3783600089898989610f6f565b50505050505050565b600380546001600160a01b038381166001600160a01b0319831681179093556040519116919082907f8be0079c531659141344cd1fd0a4f28419497f9722a3daafe3b4186f6b6457e090600090a35050565b816001600160a01b0316836001600160a01b03161415610c065760405162461bcd60e51b815260206004820152602960248201527f455243313135353a2073657474696e6720617070726f76616c20737461747573604482015268103337b91039b2b63360b91b60648201526084016102fe565b6001600160a01b03838116600081815260016020908152604080832094871680845294825291829020805460ff191686151590811790915591519182527f17307eab39ab6107e8899845ad3d59bd9653f200f220920489ca2b5937696c31910160405180910390a3505050565b6001600160a01b038416610c995760405162461bcd60e51b81526004016102fe906118e2565b336000610ca585610f24565b90506000610cb285610f24565b9050610cc2838989858589610dab565b6000868152602081815260408083206001600160a01b038c16845290915290205485811015610d035760405162461bcd60e51b81526004016102fe90611927565b6000878152602081815260408083206001600160a01b038d8116855292528083208985039055908a16825281208054889290610d4090849061189c565b909155505060408051888152602081018890526001600160a01b03808b16928c821692918816917fc3d58168c5ae7397731d063d5bbf3d657854427343f4c083240f7aacaa2d0f62910160405180910390a4610da0848a8a8a8a8a610f6f565b505050505050505050565b610a4f868686868686611039565b6001600160a01b0384163b15610a4f5760405163bc197c8160e01b81526001600160a01b0385169063bc197c8190610dfd9089908990889088908890600401611971565b602060405180830381600087803b158015610e1757600080fd5b505af1925050508015610e47575060408051601f3d908101601f19168201909252610e44918101906119cf565b60015b610ef457610e536119ec565b806308c379a01415610e8d5750610e68611a08565b80610e735750610e8f565b8060405162461bcd60e51b81526004016102fe9190611298565b505b60405162461bcd60e51b815260206004820152603460248201527f455243313135353a207472616e7366657220746f206e6f6e20455243313135356044820152732932b1b2b4bb32b91034b6b83632b6b2b73a32b960611b60648201526084016102fe565b6001600160e01b0319811663bc197c8160e01b14610b375760405162461bcd60e51b81526004016102fe90611a92565b60408051600180825281830190925260609160009190602080830190803683370190505090508281600081518110610f5e57610f5e6117cc565b602090810291909101015292915050565b6001600160a01b0384163b15610a4f5760405163f23a6e6160e01b81526001600160a01b0385169063f23a6e6190610fb39089908990889088908890600401611ada565b602060405180830381600087803b158015610fcd57600080fd5b505af1925050508015610ffd575060408051601f3d908101601f19168201909252610ffa918101906119cf565b60015b61100957610e536119ec565b6001600160e01b0319811663f23a6e6160e01b14610b375760405162461bcd60e51b81526004016102fe90611a92565b6001600160a01b0385166110c05760005b83518110156110be57828181518110611065576110656117cc565b602002602001015160046000868481518110611083576110836117cc565b6020026020010151815260200190815260200160002060008282546110a8919061189c565b909155506110b79050816117f8565b905061104a565b505b6001600160a01b038416610a4f5760005b8351811015610b375760008482815181106110ee576110ee6117cc565b60200260200101519050600084838151811061110c5761110c6117cc565b602002602001015190506000600460008481526020019081526020016000205490508181101561118f5760405162461bcd60e51b815260206004820152602860248201527f455243313135353a206275726e20616d6f756e74206578636565647320746f74604482015267616c537570706c7960c01b60648201526084016102fe565b600092835260046020526040909220910390556111ab816117f8565b90506110d1565b80356001600160a01b03811681146111c957600080fd5b919050565b600080604083850312156111e157600080fd5b6111ea836111b2565b946020939093013593505050565b6001600160e01b0319811681146106f657600080fd5b60006020828403121561122057600080fd5b813561122b816111f8565b9392505050565b60006020828403121561124457600080fd5b5035919050565b6000815180845260005b8181101561127157602081850181015186830182015201611255565b81811115611283576000602083870101525b50601f01601f19169290920160200192915050565b60208152600061122b602083018461124b565b634e487b7160e01b600052604160045260246000fd5b601f8201601f1916810167ffffffffffffffff811182821017156112e7576112e76112ab565b6040525050565b600067ffffffffffffffff821115611308576113086112ab565b5060051b60200190565b600082601f83011261132357600080fd5b81356020611330826112ee565b60405161133d82826112c1565b83815260059390931b850182019282810191508684111561135d57600080fd5b8286015b848110156113785780358352918301918301611361565b509695505050505050565b600082601f83011261139457600080fd5b813567ffffffffffffffff8111156113ae576113ae6112ab565b6040516113c5601f8301601f1916602001826112c1565b8181528460208386010111156113da57600080fd5b816020850160208301376000918101602001919091529392505050565b6000806000806080858703121561140d57600080fd5b611416856111b2565b9350602085013567ffffffffffffffff8082111561143357600080fd5b61143f88838901611312565b9450604087013591508082111561145557600080fd5b61146188838901611312565b9350606087013591508082111561147757600080fd5b5061148487828801611383565b91505092959194509250565b600080600080600060a086880312156114a857600080fd5b6114b1866111b2565b94506114bf602087016111b2565b9350604086013567ffffffffffffffff808211156114dc57600080fd5b6114e889838a01611312565b945060608801359150808211156114fe57600080fd5b61150a89838a01611312565b9350608088013591508082111561152057600080fd5b5061152d88828901611383565b9150509295509295909350565b6000806040838503121561154d57600080fd5b823567ffffffffffffffff8082111561156557600080fd5b818501915085601f83011261157957600080fd5b81356020611586826112ee565b60405161159382826112c1565b83815260059390931b85018201928281019150898411156115b357600080fd5b948201945b838610156115d8576115c9866111b2565b825294820194908201906115b8565b965050860135925050808211156115ee57600080fd5b506115fb85828601611312565b9150509250929050565b600081518084526020808501945080840160005b8381101561163557815187529582019590820190600101611619565b509495945050505050565b60208152600061122b6020830184611605565b6000806040838503121561166657600080fd5b61166f836111b2565b91506020830135801515811461168457600080fd5b809150509250929050565b600080604083850312156116a257600080fd5b6116ab836111b2565b91506116b9602084016111b2565b90509250929050565b600080600080600060a086880312156116da57600080fd5b6116e3866111b2565b94506116f1602087016111b2565b93506040860135925060608601359150608086013567ffffffffffffffff81111561171b57600080fd5b61152d88828901611383565b60006020828403121561173957600080fd5b61122b826111b2565b600181811c9082168061175657607f821691505b6020821081141561177757634e487b7160e01b600052602260045260246000fd5b50919050565b6020808252602f908201527f455243313135353a2063616c6c6572206973206e6f7420746f6b656e206f776e60408201526e195c881b9bdc88185c1c1c9bdd9959608a1b606082015260800190565b634e487b7160e01b600052603260045260246000fd5b634e487b7160e01b600052601160045260246000fd5b600060001982141561180c5761180c6117e2565b5060010190565b60208082526021908201527f455243313135353a206d696e7420746f20746865207a65726f206164647265736040820152607360f81b606082015260800190565b60208082526028908201527f455243313135353a2069647320616e6420616d6f756e7473206c656e677468206040820152670dad2e6dac2e8c6d60c31b606082015260800190565b600082198211156118af576118af6117e2565b500190565b6040815260006118c76040830185611605565b82810360208401526118d98185611605565b95945050505050565b60208082526025908201527f455243313135353a207472616e7366657220746f20746865207a65726f206164604082015264647265737360d81b606082015260800190565b6020808252602a908201527f455243313135353a20696e73756666696369656e742062616c616e636520666f60408201526939103a3930b739b332b960b11b606082015260800190565b6001600160a01b0386811682528516602082015260a06040820181905260009061199d90830186611605565b82810360608401526119af8186611605565b905082810360808401526119c3818561124b565b98975050505050505050565b6000602082840312156119e157600080fd5b815161122b816111f8565b600060033d1115611a055760046000803e5060005160e01c5b90565b600060443d1015611a165790565b6040516003193d81016004833e81513d67ffffffffffffffff8160248401118184111715611a4657505050505090565b8285019150815181811115611a5e5750505050505090565b843d8701016020828501011115611a785750505050505090565b611a87602082860101876112c1565b509095945050505050565b60208082526028908201527f455243313135353a204552433131353552656365697665722072656a656374656040820152676420746f6b656e7360c01b606082015260800190565b6001600160a01b03868116825285166020820152604081018490526060810183905260a060808201819052600090611b149083018461124b565b97965050505050505056fea2646970667358221220cb63e9b29a8c7f5abe60c558c2b8b54a8f89af4176c3fe0d75445c4c1adc1ddf64736f6c6343000809003368747470733a2f2f676174657761792e70696e6174612e636c6f75642f697066732f516d624a4374634c5056676837394162704537536b7a7a3175587535484674664e3256734a33374236704674737a2f7b69647d2e6a736f6e",
  "linkReferences": {},
  "deployedLinkReferences": {}
}