{
  "_format": "hh-sol-artifact-1",
  "contractName": "CryptoRevolution",
  "sourceName": "contracts/CryptoRevolution.sol",
  "abi": [
    {
      "inputs": [],
      "stateMutability": "nonpayable",
      "type": "constructor"
    },
    {
      "anonymous": false,
      "inputs": [
        {
          "indexed": true,
          "internalType": "address",
          "name": "account",
          "type": "address"
        },
        {
          "indexed": true,
          "internalType": "address",
          "name": "operator",
          "type": "address"
        },
        {
          "indexed": false,
          "internalType": "bool",
          "name": "approved",
          "type": "bool"
        }
      ],
      "name": "ApprovalForAll",
      "type": "event"
    },
    {
      "anonymous": false,
      "inputs": [
        {
          "indexed": true,
          "internalType": "address",
          "name": "previousOwner",
          "type": "address"
        },
        {
          "indexed": true,
          "internalType": "address",
          "name": "newOwner",
          "type": "address"
        }
      ],
      "name": "OwnershipTransferred",
      "type": "event"
    },
    {
      "anonymous": false,
      "inputs": [
        {
          "indexed": true,
          "internalType": "address",
          "name": "operator",
          "type": "address"
        },
        {
          "indexed": true,
          "internalType": "address",
          "name": "from",
          "type": "address"
        },
        {
          "indexed": true,
          "internalType": "address",
          "name": "to",
          "type": "address"
        },
        {
          "indexed": false,
          "internalType": "uint256[]",
          "name": "ids",
          "type": "uint256[]"
        },
        {
          "indexed": false,
          "internalType": "uint256[]",
          "name": "values",
          "type": "uint256[]"
        }
      ],
      "name": "TransferBatch",
      "type": "event"
    },
    {
      "anonymous": false,
      "inputs": [
        {
          "indexed": true,
          "internalType": "address",
          "name": "operator",
          "type": "address"
        },
        {
          "indexed": true,
          "internalType": "address",
          "name": "from",
          "type": "address"
        },
        {
          "indexed": true,
          "internalType": "address",
          "name": "to",
          "type": "address"
        },
        {
          "indexed": false,
          "internalType": "uint256",
          "name": "id",
          "type": "uint256"
        },
        {
          "indexed": false,
          "internalType": "uint256",
          "name": "value",
          "type": "uint256"
        }
      ],
      "name": "TransferSingle",
      "type": "event"
    },
    {
      "anonymous": false,
      "inputs": [
        {
          "indexed": false,
          "internalType": "string",
          "name": "value",
          "type": "string"
        },
        {
          "indexed": true,
          "internalType": "uint256",
          "name": "id",
          "type": "uint256"
        }
      ],
      "name": "URI",
      "type": "event"
    },
    {
      "inputs": [
        {
          "internalType": "address",
          "name": "account",
          "type": "address"
        },
        {
          "internalType": "uint256",
          "name": "id",
          "type": "uint256"
        }
      ],
      "name": "balanceOf",
      "outputs": [
        {
          "internalType": "uint256",
          "name": "",
          "type": "uint256"
        }
      ],
      "stateMutability": "view",
      "type": "function"
    },
    {
      "inputs": [
        {
          "internalType": "address[]",
          "name": "accounts",
          "type": "address[]"
        },
        {
          "internalType": "uint256[]",
          "name": "ids",
          "type": "uint256[]"
        }
      ],
      "name": "balanceOfBatch",
      "outputs": [
        {
          "internalType": "uint256[]",
          "name": "",
          "type": "uint256[]"
        }
      ],
      "stateMutability": "view",
      "type": "function"
    },
    {
      "inputs": [
        {
          "internalType": "uint256",
          "name": "id",
          "type": "uint256"
        }
      ],
      "name": "exists",
      "outputs": [
        {
          "internalType": "bool",
          "name": "",
          "type": "bool"
        }
      ],
      "stateMutability": "view",
      "type": "function"
    },
    {
      "inputs": [],
      "name": "getNFTOwners",
      "outputs": [
        {
          "internalType": "address[]",
          "name": "",
          "type": "address[]"
        }
      ],
      "stateMutability": "view",
      "type": "function"
    },
    {
      "inputs": [
        {
          "internalType": "address",
          "name": "owner",
          "type": "address"
        }
      ],
      "name": "getOwnerNFTs",
      "outputs": [
        {
          "internalType": "uint256[]",
          "name": "",
          "type": "uint256[]"
        }
      ],
      "stateMutability": "view",
      "type": "function"
    },
    {
      "inputs": [
        {
          "internalType": "address",
          "name": "account",
          "type": "address"
        },
        {
          "internalType": "address",
          "name": "operator",
          "type": "address"
        }
      ],
      "name": "isApprovedForAll",
      "outputs": [
        {
          "internalType": "bool",
          "name": "",
          "type": "bool"
        }
      ],
      "stateMutability": "view",
      "type": "function"
    },
    {
      "inputs": [
        {
          "internalType": "address",
          "name": "account",
          "type": "address"
        },
        {
          "internalType": "uint256",
          "name": "id",
          "type": "uint256"
        }
      ],
      "name": "mint",
      "outputs": [
        {
          "internalType": "uint256",
          "name": "",
          "type": "uint256"
        }
      ],
      "stateMutability": "nonpayable",
      "type": "function"
    },
    {
      "inputs": [
        {
          "internalType": "address",
          "name": "to",
          "type": "address"
        },
        {
          "internalType": "uint256[]",
          "name": "ids",
          "type": "uint256[]"
        },
        {
          "internalType": "uint256[]",
          "name": "amounts",
          "type": "uint256[]"
        },
        {
          "internalType": "bytes",
          "name": "data",
          "type": "bytes"
        }
      ],
      "name": "mintBatch",
      "outputs": [],
      "stateMutability": "nonpayable",
      "type": "function"
    },
    {
      "inputs": [],
      "name": "owner",
      "outputs": [
        {
          "internalType": "address",
          "name": "",
          "type": "address"
        }
      ],
      "stateMutability": "view",
      "type": "function"
    },
    {
      "inputs": [],
      "name": "renounceOwnership",
      "outputs": [],
      "stateMutability": "nonpayable",
      "type": "function"
    },
    {
      "inputs": [
        {
          "internalType": "address",
          "name": "from",
          "type": "address"
        },
        {
          "internalType": "address",
          "name": "to",
          "type": "address"
        },
        {
          "internalType": "uint256[]",
          "name": "ids",
          "type": "uint256[]"
        },
        {
          "internalType": "uint256[]",
          "name": "amounts",
          "type": "uint256[]"
        },
        {
          "internalType": "bytes",
          "name": "data",
          "type": "bytes"
        }
      ],
      "name": "safeBatchTransferFrom",
      "outputs": [],
      "stateMutability": "nonpayable",
      "type": "function"
    },
    {
      "inputs": [
        {
          "internalType": "address",
          "name": "from",
          "type": "address"
        },
        {
          "internalType": "address",
          "name": "to",
          "type": "address"
        },
        {
          "internalType": "uint256",
          "name": "id",
          "type": "uint256"
        },
        {
          "internalType": "uint256",
          "name": "amount",
          "type": "uint256"
        },
        {
          "internalType": "bytes",
          "name": "data",
          "type": "bytes"
        }
      ],
      "name": "safeTransferFrom",
      "outputs": [],
      "stateMutability": "nonpayable",
      "type": "function"
    },
    {
      "inputs": [
        {
          "internalType": "address",
          "name": "operator",
          "type": "address"
        },
        {
          "internalType": "bool",
          "name": "approved",
          "type": "bool"
        }
      ],
      "name": "setApprovalForAll",
      "outputs": [],
      "stateMutability": "nonpayable",
      "type": "function"
    },
    {
      "inputs": [
        {
          "internalType": "bytes4",
          "name": "interfaceId",
          "type": "bytes4"
        }
      ],
      "name": "supportsInterface",
      "outputs": [
        {
          "internalType": "bool",
          "name": "",
          "type": "bool"
        }
      ],
      "stateMutability": "view",
      "type": "function"
    },
    {
      "inputs": [
        {
          "internalType": "uint256",
          "name": "id",
          "type": "uint256"
        }
      ],
      "name": "totalSupply",
      "outputs": [
        {
          "internalType": "uint256",
          "name": "",
          "type": "uint256"
        }
      ],
      "stateMutability": "view",
      "type": "function"
    },
    {
      "inputs": [
        {
          "internalType": "address",
          "name": "newOwner",
          "type": "address"
        }
      ],
      "name": "transferOwnership",
      "outputs": [],
      "stateMutability": "nonpayable",
      "type": "function"
    },
    {
      "inputs": [
        {
          "internalType": "uint256",
          "name": "",
          "type": "uint256"
        }
      ],
      "name": "uri",
      "outputs": [
        {
          "internalType": "string",
          "name": "",
          "type": "string"
        }
      ],
      "stateMutability": "view",
      "type": "function"
    }
  ],
  "bytecode": "0x60806040523480156200001157600080fd5b506040518060800160405280605a815260200162001f14605a9139620000378162000049565b50620000433362000062565b62000197565b80516200005e906002906020840190620000b4565b5050565b600380546001600160a01b038381166001600160a01b0319831681179093556040519116919082907f8be0079c531659141344cd1fd0a4f28419497f9722a3daafe3b4186f6b6457e090600090a35050565b828054620000c2906200015a565b90600052602060002090601f016020900481019282620000e6576000855562000131565b82601f106200010157805160ff191683800117855562000131565b8280016001018555821562000131579182015b828111156200013157825182559160200191906001019062000114565b506200013f92915062000143565b5090565b5b808211156200013f576000815560010162000144565b600181811c908216806200016f57607f821691505b602082108114156200019157634e487b7160e01b600052602260045260246000fd5b50919050565b611d6d80620001a76000396000f3fe608060405234801561001057600080fd5b506004361061010a5760003560e01c8063715018a6116100a2578063a22cb46511610071578063a22cb46514610240578063bd85b03914610253578063e985e9c514610273578063f242432a146102af578063f2fde38b146102c257600080fd5b8063715018a6146101f55780638c017572146101fd5780638da5cb5b146102105780638e393d831461022b57600080fd5b80632eb2c2d6116100de5780632eb2c2d61461018d57806340c10f19146101a05780634e1273f4146101b35780634f558e79146101d357600080fd5b8062fdd58e1461010f57806301ffc9a7146101355780630e89341c146101585780631f7fdffa14610178575b600080fd5b61012261011d3660046113a0565b6102d5565b6040519081526020015b60405180910390f35b6101486101433660046113e0565b61036b565b604051901515815260200161012c565b61016b6101663660046113fd565b6103bd565b60405161012c9190611463565b61018b6101863660046115c2565b610451565b005b61018b61019b36600461165b565b61046b565b6101226101ae3660046113a0565b6104b7565b6101c66101c1366004611705565b6105f3565b60405161012c919061180b565b6101486101e13660046113fd565b600090815260046020526040902054151590565b61018b61071d565b6101c661020b36600461181e565b610731565b6003546040516001600160a01b03909116815260200161012c565b61023361079c565b60405161012c9190611839565b61018b61024e366004611886565b6107fe565b6101226102613660046113fd565b60009081526004602052604090205490565b6101486102813660046118c2565b6001600160a01b03918216600090815260016020908152604080832093909416825291909152205460ff1690565b61018b6102bd3660046118f5565b61080d565b61018b6102d036600461181e565b610852565b60006001600160a01b0383166103455760405162461bcd60e51b815260206004820152602a60248201527f455243313135353a2061646472657373207a65726f206973206e6f742061207660448201526930b634b21037bbb732b960b11b60648201526084015b60405180910390fd5b506000908152602081815260408083206001600160a01b03949094168352929052205490565b60006001600160e01b03198216636cdb3d1360e11b148061039c57506001600160e01b031982166303a24d0760e21b145b806103b757506301ffc9a760e01b6001600160e01b03198316145b92915050565b6060600280546103cc9061195a565b80601f01602080910402602001604051908101604052809291908181526020018280546103f89061195a565b80156104455780601f1061041a57610100808354040283529160200191610445565b820191906000526020600020905b81548152906001019060200180831161042857829003601f168201915b50505050509050919050565b6104596108cb565b61046584848484610925565b50505050565b6001600160a01b03851633148061048757506104878533610281565b6104a35760405162461bcd60e51b815260040161033c90611995565b6104b08585858585610a7f565b5050505050565b60006104c16108cb565b60018211156105125760405162461bcd60e51b815260206004820152601d60248201527f4d696e7420746f6b656e206c6576656c20697320696e636f7272656374000000604482015260640161033c565b61052e8383600160405180602001604052806000815250610c29565b6001600160a01b03831660009081526005602052604090205460ff166105b4576001600160a01b0383166000818152600560205260408120805460ff191660019081179091556006805491820181559091527ff652222313e28459528d920b65115c16c04f3efc82aaedc97be59f3f377c0d3f0180546001600160a01b03191690911790555b6001600160a01b0383166000908152600760209081526040822080546001808201835591845291909220018390556008805491820190555b9392505050565b606081518351146106585760405162461bcd60e51b815260206004820152602960248201527f455243313135353a206163636f756e747320616e6420696473206c656e677468604482015268040dad2e6dac2e8c6d60bb1b606482015260840161033c565b6000835167ffffffffffffffff81111561067457610674611476565b60405190808252806020026020018201604052801561069d578160200160208202803683370190505b50905060005b8451811015610715576106e88582815181106106c1576106c16119e4565b60200260200101518583815181106106db576106db6119e4565b60200260200101516102d5565b8282815181106106fa576106fa6119e4565b602090810291909101015261070e81611a10565b90506106a3565b509392505050565b6107256108cb565b61072f6000610d12565b565b6001600160a01b03811660009081526007602090815260409182902080548351818402810184019094528084526060939283018282801561044557602002820191906000526020600020905b81548152602001906001019080831161077d5750505050509050919050565b606060068054806020026020016040519081016040528092919081815260200182805480156107f457602002820191906000526020600020905b81546001600160a01b031681526001909101906020018083116107d6575b5050505050905090565b610809338383610d64565b5050565b6001600160a01b03851633148061082957506108298533610281565b6108455760405162461bcd60e51b815260040161033c90611995565b6104b08585858585610e45565b61085a6108cb565b6001600160a01b0381166108bf5760405162461bcd60e51b815260206004820152602660248201527f4f776e61626c653a206e6577206f776e657220697320746865207a65726f206160448201526564647265737360d01b606482015260840161033c565b6108c881610d12565b50565b6003546001600160a01b0316331461072f5760405162461bcd60e51b815260206004820181905260248201527f4f776e61626c653a2063616c6c6572206973206e6f7420746865206f776e6572604482015260640161033c565b6001600160a01b03841661094b5760405162461bcd60e51b815260040161033c90611a2b565b815183511461096c5760405162461bcd60e51b815260040161033c90611a6c565b3361097c81600087878787610f7d565b60005b8451811015610a175783818151811061099a5761099a6119e4565b60200260200101516000808784815181106109b7576109b76119e4565b602002602001015181526020019081526020016000206000886001600160a01b03166001600160a01b0316815260200190815260200160002060008282546109ff9190611ab4565b90915550819050610a0f81611a10565b91505061097f565b50846001600160a01b031660006001600160a01b0316826001600160a01b03167f4a39dc06d4c0dbc64b70af90fd698a233a518aa5d07e595d983b8c0526c8f7fb8787604051610a68929190611acc565b60405180910390a46104b081600087878787610f8b565b8151835114610aa05760405162461bcd60e51b815260040161033c90611a6c565b6001600160a01b038416610ac65760405162461bcd60e51b815260040161033c90611afa565b33610ad5818787878787610f7d565b60005b8451811015610bbb576000858281518110610af557610af56119e4565b602002602001015190506000858381518110610b1357610b136119e4565b602090810291909101810151600084815280835260408082206001600160a01b038e168352909352919091205490915081811015610b635760405162461bcd60e51b815260040161033c90611b3f565b6000838152602081815260408083206001600160a01b038e8116855292528083208585039055908b16825281208054849290610ba0908490611ab4565b9250508190555050505080610bb490611a10565b9050610ad8565b50846001600160a01b0316866001600160a01b0316826001600160a01b03167f4a39dc06d4c0dbc64b70af90fd698a233a518aa5d07e595d983b8c0526c8f7fb8787604051610c0b929190611acc565b60405180910390a4610c21818787878787610f8b565b505050505050565b6001600160a01b038416610c4f5760405162461bcd60e51b815260040161033c90611a2b565b336000610c5b856110f6565b90506000610c68856110f6565b9050610c7983600089858589610f7d565b6000868152602081815260408083206001600160a01b038b16845290915281208054879290610ca9908490611ab4565b909155505060408051878152602081018790526001600160a01b03808a1692600092918716917fc3d58168c5ae7397731d063d5bbf3d657854427343f4c083240f7aacaa2d0f62910160405180910390a4610d0983600089898989611141565b50505050505050565b600380546001600160a01b038381166001600160a01b0319831681179093556040519116919082907f8be0079c531659141344cd1fd0a4f28419497f9722a3daafe3b4186f6b6457e090600090a35050565b816001600160a01b0316836001600160a01b03161415610dd85760405162461bcd60e51b815260206004820152602960248201527f455243313135353a2073657474696e6720617070726f76616c20737461747573604482015268103337b91039b2b63360b91b606482015260840161033c565b6001600160a01b03838116600081815260016020908152604080832094871680845294825291829020805460ff191686151590811790915591519182527f17307eab39ab6107e8899845ad3d59bd9653f200f220920489ca2b5937696c31910160405180910390a3505050565b6001600160a01b038416610e6b5760405162461bcd60e51b815260040161033c90611afa565b336000610e77856110f6565b90506000610e84856110f6565b9050610e94838989858589610f7d565b6000868152602081815260408083206001600160a01b038c16845290915290205485811015610ed55760405162461bcd60e51b815260040161033c90611b3f565b6000878152602081815260408083206001600160a01b038d8116855292528083208985039055908a16825281208054889290610f12908490611ab4565b909155505060408051888152602081018890526001600160a01b03808b16928c821692918816917fc3d58168c5ae7397731d063d5bbf3d657854427343f4c083240f7aacaa2d0f62910160405180910390a4610f72848a8a8a8a8a611141565b505050505050505050565b610c2186868686868661120b565b6001600160a01b0384163b15610c215760405163bc197c8160e01b81526001600160a01b0385169063bc197c8190610fcf9089908990889088908890600401611b89565b602060405180830381600087803b158015610fe957600080fd5b505af1925050508015611019575060408051601f3d908101601f1916820190925261101691810190611be7565b60015b6110c657611025611c04565b806308c379a0141561105f575061103a611c20565b806110455750611061565b8060405162461bcd60e51b815260040161033c9190611463565b505b60405162461bcd60e51b815260206004820152603460248201527f455243313135353a207472616e7366657220746f206e6f6e20455243313135356044820152732932b1b2b4bb32b91034b6b83632b6b2b73a32b960611b606482015260840161033c565b6001600160e01b0319811663bc197c8160e01b14610d095760405162461bcd60e51b815260040161033c90611caa565b60408051600180825281830190925260609160009190602080830190803683370190505090508281600081518110611130576111306119e4565b602090810291909101015292915050565b6001600160a01b0384163b15610c215760405163f23a6e6160e01b81526001600160a01b0385169063f23a6e61906111859089908990889088908890600401611cf2565b602060405180830381600087803b15801561119f57600080fd5b505af19250505080156111cf575060408051601f3d908101601f191682019092526111cc91810190611be7565b60015b6111db57611025611c04565b6001600160e01b0319811663f23a6e6160e01b14610d095760405162461bcd60e51b815260040161033c90611caa565b6001600160a01b0385166112925760005b835181101561129057828181518110611237576112376119e4565b602002602001015160046000868481518110611255576112556119e4565b60200260200101518152602001908152602001600020600082825461127a9190611ab4565b90915550611289905081611a10565b905061121c565b505b6001600160a01b038416610c215760005b8351811015610d095760008482815181106112c0576112c06119e4565b6020026020010151905060008483815181106112de576112de6119e4565b60200260200101519050600060046000848152602001908152602001600020549050818110156113615760405162461bcd60e51b815260206004820152602860248201527f455243313135353a206275726e20616d6f756e74206578636565647320746f74604482015267616c537570706c7960c01b606482015260840161033c565b6000928352600460205260409092209103905561137d81611a10565b90506112a3565b80356001600160a01b038116811461139b57600080fd5b919050565b600080604083850312156113b357600080fd5b6113bc83611384565b946020939093013593505050565b6001600160e01b0319811681146108c857600080fd5b6000602082840312156113f257600080fd5b81356105ec816113ca565b60006020828403121561140f57600080fd5b5035919050565b6000815180845260005b8181101561143c57602081850181015186830182015201611420565b8181111561144e576000602083870101525b50601f01601f19169290920160200192915050565b6020815260006105ec6020830184611416565b634e487b7160e01b600052604160045260246000fd5b601f8201601f1916810167ffffffffffffffff811182821017156114b2576114b2611476565b6040525050565b600067ffffffffffffffff8211156114d3576114d3611476565b5060051b60200190565b600082601f8301126114ee57600080fd5b813560206114fb826114b9565b604051611508828261148c565b83815260059390931b850182019282810191508684111561152857600080fd5b8286015b84811015611543578035835291830191830161152c565b509695505050505050565b600082601f83011261155f57600080fd5b813567ffffffffffffffff81111561157957611579611476565b604051611590601f8301601f19166020018261148c565b8181528460208386010111156115a557600080fd5b816020850160208301376000918101602001919091529392505050565b600080600080608085870312156115d857600080fd5b6115e185611384565b9350602085013567ffffffffffffffff808211156115fe57600080fd5b61160a888389016114dd565b9450604087013591508082111561162057600080fd5b61162c888389016114dd565b9350606087013591508082111561164257600080fd5b5061164f8782880161154e565b91505092959194509250565b600080600080600060a0868803121561167357600080fd5b61167c86611384565b945061168a60208701611384565b9350604086013567ffffffffffffffff808211156116a757600080fd5b6116b389838a016114dd565b945060608801359150808211156116c957600080fd5b6116d589838a016114dd565b935060808801359150808211156116eb57600080fd5b506116f88882890161154e565b9150509295509295909350565b6000806040838503121561171857600080fd5b823567ffffffffffffffff8082111561173057600080fd5b818501915085601f83011261174457600080fd5b81356020611751826114b9565b60405161175e828261148c565b83815260059390931b850182019282810191508984111561177e57600080fd5b948201945b838610156117a35761179486611384565b82529482019490820190611783565b965050860135925050808211156117b957600080fd5b506117c6858286016114dd565b9150509250929050565b600081518084526020808501945080840160005b83811015611800578151875295820195908201906001016117e4565b509495945050505050565b6020815260006105ec60208301846117d0565b60006020828403121561183057600080fd5b6105ec82611384565b6020808252825182820181905260009190848201906040850190845b8181101561187a5783516001600160a01b031683529284019291840191600101611855565b50909695505050505050565b6000806040838503121561189957600080fd5b6118a283611384565b9150602083013580151581146118b757600080fd5b809150509250929050565b600080604083850312156118d557600080fd5b6118de83611384565b91506118ec60208401611384565b90509250929050565b600080600080600060a0868803121561190d57600080fd5b61191686611384565b945061192460208701611384565b93506040860135925060608601359150608086013567ffffffffffffffff81111561194e57600080fd5b6116f88882890161154e565b600181811c9082168061196e57607f821691505b6020821081141561198f57634e487b7160e01b600052602260045260246000fd5b50919050565b6020808252602f908201527f455243313135353a2063616c6c6572206973206e6f7420746f6b656e206f776e60408201526e195c881b9bdc88185c1c1c9bdd9959608a1b606082015260800190565b634e487b7160e01b600052603260045260246000fd5b634e487b7160e01b600052601160045260246000fd5b6000600019821415611a2457611a246119fa565b5060010190565b60208082526021908201527f455243313135353a206d696e7420746f20746865207a65726f206164647265736040820152607360f81b606082015260800190565b60208082526028908201527f455243313135353a2069647320616e6420616d6f756e7473206c656e677468206040820152670dad2e6dac2e8c6d60c31b606082015260800190565b60008219821115611ac757611ac76119fa565b500190565b604081526000611adf60408301856117d0565b8281036020840152611af181856117d0565b95945050505050565b60208082526025908201527f455243313135353a207472616e7366657220746f20746865207a65726f206164604082015264647265737360d81b606082015260800190565b6020808252602a908201527f455243313135353a20696e73756666696369656e742062616c616e636520666f60408201526939103a3930b739b332b960b11b606082015260800190565b6001600160a01b0386811682528516602082015260a060408201819052600090611bb5908301866117d0565b8281036060840152611bc781866117d0565b90508281036080840152611bdb8185611416565b98975050505050505050565b600060208284031215611bf957600080fd5b81516105ec816113ca565b600060033d1115611c1d5760046000803e5060005160e01c5b90565b600060443d1015611c2e5790565b6040516003193d81016004833e81513d67ffffffffffffffff8160248401118184111715611c5e57505050505090565b8285019150815181811115611c765750505050505090565b843d8701016020828501011115611c905750505050505090565b611c9f6020828601018761148c565b509095945050505050565b60208082526028908201527f455243313135353a204552433131353552656365697665722072656a656374656040820152676420746f6b656e7360c01b606082015260800190565b6001600160a01b03868116825285166020820152604081018490526060810183905260a060808201819052600090611d2c90830184611416565b97965050505050505056fea26469706673582212200b8341cf2d48f4073cd0c0ea5852f95c7d4b1fcb60728d0ced98d79771caccb564736f6c6343000809003368747470733a2f2f676174657761792e70696e6174612e636c6f75642f697066732f516d624a4374634c5056676837394162704537536b7a7a3175587535484674664e3256734a33374236704674737a2f7b69647d2e6a736f6e",
  "linkReferences": {},
  "deployedLinkReferences": {}
}